:100000000C9479000C9498000C9498000C9498002F
:100010000C9498000C9498000C9498000C94980000
:100020000C9498000C9498000C9498000C949800F0
:100030000C9498000C94ED0B0C9498000C94980080
:100040000C9498000C9498000C9498000C949800D0
:100050000C9498000C9498000C9498000C949800C0
:100060000C9498000C9498000C9498000C949800B0
:100070000C9498000C9498000C9498000C949800A0
:100080000C9498000C9498000C949800E0003001B7
:1000900050019401D80110025402A402D0022C0392
:1000A0007C03CB030E0445048804CB04020514052D
:1000B00057059A05D105F005270652068906CC0694
:1000C000F7063A0765078407BB07FE0729085408A7
:1000D0007F08AA08ED0818095B098609B109E80933
:1000E000070A260A450A700A8F0AAE0AD90A040BC3
:1000F0002F0B11241FBECFEFD0E4DEBFCDBF11E028
:10010000A0E0B1E0ECE9FCE100E00BBF02C0079029
:100110000D92A032B107D9F721E0A0E2B1E001C011
:100120001D92A334B207E1F70E94030D0C944C0E0C
:100130000C940000CF93DF9300D01F92CDB7DEB7B1
:1001400089837B836A8389818A3031F48A819B81A8
:10015000BC018DE00E949A0080EC90E0FC0180815F
:10016000882F90E080729927892BB1F386EC90E07C
:100170002981FC01208380E090E00F900F900F9088
:10018000DF91CF910895CF93DF931F92CDB7DEB764
:1001900089838981882F90E0092E000CAA0BBB0B64
:1001A00040E050E022E330E0841B950B281739072C
:1001B00010F40C945A0B8A5B9F4FFC010C94430E75
:1001C000809116019091170120911801422F50E063
:1001D00021E030E002C0220F331F4A95E2F7622F80
:1001E00020911901422F50E021E030E002C0220F9F
:1001F000331F4A95E2F7622B20911A01422F50E0FB
:1002000021E030E002C0220F331F4A95E2F7622B53
:1002100020911B01422F50E021E030E002C0220F6C
:10022000331F4A95E2F7622B20911C01422F50E0C8
:1002300021E030E002C0220F331F4A95E2F7622B23
:1002400020911D01422F50E021E030E002C0220F3A
:10025000331F4A95E2F7262BFC0120830C946C0B8C
:10026000809116019091170120911901422F50E0C1
:1002700021E030E002C0220F331F4A95E2F7622FDF
:1002800020911A01422F50E021E030E002C0220FFD
:10029000331F4A95E2F7262BFC0120830C946C0B4C
:1002A000809116019091170120911801422F50E082
:1002B00021E030E002C0220F331F4A95E2F7622F9F
:1002C00020911901422F50E021E030E002C0220FBE
:1002D000331F4A95E2F7622B20911B01422F50E019
:1002E00021E030E002C0220F331F4A95E2F7622B73
:1002F00020911C01422F50E021E030E002C0220F8B
:10030000331F4A95E2F7622B20911E01422F50E0E5
:1003100021E030E002C0220F331F4A95E2F7262B7E
:10032000FC0120830C946C0B8091160190911701B5
:1003300020911801422F50E021E030E002C0220F4E
:10034000331F4A95E2F7622F20911901422F50E0A6
:1003500021E030E002C0220F331F4A95E2F7622B02
:1003600020911A01422F50E021E030E002C0220F1C
:10037000331F4A95E2F7622B20911B01422F50E078
:1003800021E030E002C0220F331F4A95E2F7622BD2
:1003900020911E01422F50E021E030E002C0220FE8
:1003A000331F4A95E2F7262BFC0120830C946C0B3B
:1003B000809116019091170120911901422F50E070
:1003C00021E030E002C0220F331F4A95E2F7622F8E
:1003D00020911A01422F50E021E030E002C0220FAC
:1003E000331F4A95E2F7622B20911D01422F50E006
:1003F00021E030E002C0220F331F4A95E2F7622B62
:1004000020911E01422F50E021E030E002C0220F77
:10041000331F4A95E2F7262BFC0120830C946C0BCA
:10042000809116019091170120911801422F50E000
:1004300021E030E002C0220F331F4A95E2F7622F1D
:1004400020911A01422F50E021E030E002C0220F3B
:10045000331F4A95E2F7622B20911B01422F50E097
:1004600021E030E002C0220F331F4A95E2F7622BF1
:1004700020911D01422F50E021E030E002C0220F08
:10048000331F4A95E2F7622B20911E01422F50E064
:1004900021E030E002C0220F331F4A95E2F7262BFD
:1004A000FC0120830C946C0B809116019091170134
:1004B00020911801422F50E021E030E002C0220FCD
:1004C000331F4A95E2F7622F20911A01422F50E024
:1004D00021E030E002C0220F331F4A95E2F7622B81
:1004E00020911B01422F50E021E030E002C0220F9A
:1004F000331F4A95E2F7622B20911C01422F50E0F6
:1005000021E030E002C0220F331F4A95E2F7622B50
:1005100020911D01422F50E021E030E002C0220F67
:10052000331F4A95E2F7622B20911E01422F50E0C3
:1005300021E030E002C0220F331F4A95E2F7262B5C
:10054000FC0120830C946C0B809116019091170193
:1005500020911801422F50E021E030E002C0220F2C
:10056000331F4A95E2F7622F20911901422F50E084
:1005700021E030E002C0220F331F4A95E2F7622BE0
:1005800020911A01422F50E021E030E002C0220FFA
:10059000331F4A95E2F7262BFC0120830C946C0B49
:1005A000809116019091170120911801422F50E07F
:1005B00021E030E002C0220F331F4A95E2F7622F9C
:1005C00020911901422F50E021E030E002C0220FBB
:1005D000331F4A95E2F7622B20911A01422F50E017
:1005E00021E030E002C0220F331F4A95E2F7622B70
:1005F00020911B01422F50E021E030E002C0220F89
:10060000331F4A95E2F7622B20911C01422F50E0E4
:1006100021E030E002C0220F331F4A95E2F7622B3F
:1006200020911D01422F50E021E030E002C0220F56
:10063000331F4A95E2F7622B20911E01422F50E0B2
:1006400021E030E002C0220F331F4A95E2F7262B4B
:10065000FC0120830C946C0B809116019091170182
:1006600020911801422F50E021E030E002C0220F1B
:10067000331F4A95E2F7622F20911901422F50E073
:1006800021E030E002C0220F331F4A95E2F7622BCF
:1006900020911A01422F50E021E030E002C0220FE9
:1006A000331F4A95E2F7622B20911B01422F50E045
:1006B00021E030E002C0220F331F4A95E2F7622B9F
:1006C00020911D01422F50E021E030E002C0220FB6
:1006D000331F4A95E2F7622B20911E01422F50E012
:1006E00021E030E002C0220F331F4A95E2F7262BAB
:1006F000FC0120830C946C0B8091160190911701E2
:1007000020911801422F50E021E030E002C0220F7A
:10071000331F4A95E2F7622F20911901422F50E0D2
:1007200021E030E002C0220F331F4A95E2F7622B2E
:1007300020911A01422F50E021E030E002C0220F48
:10074000331F4A95E2F7622B20911C01422F50E0A3
:1007500021E030E002C0220F331F4A95E2F7622BFE
:1007600020911D01422F50E021E030E002C0220F15
:10077000331F4A95E2F7622B20911E01422F50E071
:1007800021E030E002C0220F331F4A95E2F7262B0A
:10079000FC012083A1C7809116019091170120913F
:1007A0001A01422F50E021E030E002C0220F331F37
:1007B0004A95E2F7622F20911B01422F50E021E081
:1007C00030E002C0220F331F4A95E2F7622B2091DE
:1007D0001C01422F50E021E030E002C0220F331F05
:1007E0004A95E2F7622B20911D01422F50E021E053
:1007F00030E002C0220F331F4A95E2F7622B2091AE
:100800001E01422F50E021E030E002C0220F331FD2
:100810004A95E2F7262BFC0120835EC780911601E2
:100820009091170120911801422F50E021E030E013
:1008300002C0220F331F4A95E2F7622F20911B015D
:10084000422F50E021E030E002C0220F331F4A95D2
:10085000E2F7622B20911C01422F50E021E030E0B2
:1008600002C0220F331F4A95E2F7622B20911D012F
:10087000422F50E021E030E002C0220F331F4A95A2
:10088000E2F7262BFC01208327C780911601909167
:10089000170120911901422F50E021E030E002C001
:1008A000220F331F4A95E2F7622F20911A01422F3F
:1008B00050E021E030E002C0220F331F4A95E2F7FA
:1008C000622B20911B01422F50E021E030E002C05A
:1008D000220F331F4A95E2F7622B20911C01422F11
:1008E00050E021E030E002C0220F331F4A95E2F7CA
:1008F000622B20911E01422F50E021E030E002C027
:10090000220F331F4A95E2F7262BFC012083E4C611
:10091000809116019091170120911801422F50E00B
:1009200021E030E002C0220F331F4A95E2F7622F28
:1009300020911B01422F50E021E030E002C0220F45
:10094000331F4A95E2F7622B20911C01422F50E0A1
:1009500021E030E002C0220F331F4A95E2F7622BFC
:1009600020911D01422F50E021E030E002C0220F13
:10097000331F4A95E2F7622B20911E01422F50E06F
:1009800021E030E002C0220F331F4A95E2F7262B08
:10099000FC012083A1C6809116019091170120913E
:1009A0001801422F50E021E030E002C0220F331F37
:1009B0004A95E2F7622F20911C01422F50E021E07E
:1009C00030E002C0220F331F4A95E2F7622B2091DC
:1009D0001D01422F50E021E030E002C0220F331F02
:1009E0004A95E2F7622B20911E01422F50E021E050
:1009F00030E002C0220F331F4A95E2F7262BFC019C
:100A000020836AC6809116019091170120911F01E1
:100A1000422F50E021E030E002C0220F331F4A9500
:100A2000E2F7FC01208358C68091160190911701CE
:100A300020911801422F50E021E030E002C0220F47
:100A4000331F4A95E2F7622F20911A01422F50E09E
:100A500021E030E002C0220F331F4A95E2F7622BFB
:100A600020911B01422F50E021E030E002C0220F14
:100A7000331F4A95E2F7622B20911C01422F50E070
:100A800021E030E002C0220F331F4A95E2F7622BCB
:100A900020911D01422F50E021E030E002C0220FE2
:100AA000331F4A95E2F7262BFC01208315C680915F
:100AB00016019091170120911901422F50E021E079
:100AC00030E002C0220F331F4A95E2F7622F2091D7
:100AD0001A01422F50E021E030E002C0220F331F04
:100AE0004A95E2F7622B20911C01422F50E021E051
:100AF00030E002C0220F331F4A95E2F7622B2091AB
:100B00001D01422F50E021E030E002C0220F331FD0
:100B10004A95E2F7622B20911E01422F50E021E01E
:100B200030E002C0220F331F4A95E2F7262BFC016A
:100B30002083D2C5809116019091170120911A014E
:100B4000422F50E021E030E002C0220F331F4A95CF
:100B5000E2F7622F20911C01422F50E021E030E0AB
:100B600002C0220F331F4A95E2F7622B20911D012C
:100B7000422F50E021E030E002C0220F331F4A959F
:100B8000E2F7622B20911E01422F50E021E030E07D
:100B900002C0220F331F4A95E2F7262BFC01208367
:100BA0009BC5809116019091170120911C01422F45
:100BB00050E021E030E002C0220F331F4A95E2F7F7
:100BC000622F20911D01422F50E021E030E002C051
:100BD000220F331F4A95E2F7262BFC0120837CC5A8
:100BE000809116019091170120911901422F50E038
:100BF00021E030E002C0220F331F4A95E2F7622F56
:100C000020911A01422F50E021E030E002C0220F73
:100C1000331F4A95E2F7622B20911B01422F50E0CF
:100C200021E030E002C0220F331F4A95E2F7622B29
:100C300020911C01422F50E021E030E002C0220F41
:100C4000331F4A95E2F7262BFC01208345C580918E
:100C500016019091170120911B01422F50E021E0D5
:100C600030E002C0220F331F4A95E2F7622F209135
:100C70001C01422F50E021E030E002C0220F331F60
:100C80004A95E2F7622B20911D01422F50E021E0AE
:100C900030E002C0220F331F4A95E2F7262BFC01F9
:100CA00020831AC580911601909117012091180197
:100CB000422F50E021E030E002C0220F331F4A955E
:100CC000E2F7622F20911A01422F50E021E030E03C
:100CD00002C0220F331F4A95E2F7622B20911C01BC
:100CE000422F50E021E030E002C0220F331F4A952E
:100CF000E2F7622B20911E01422F50E021E030E00C
:100D000002C0220F331F4A95E2F7262BFC012083F5
:100D1000E3C4809116019091170120911801422F90
:100D200050E021E030E002C0220F331F4A95E2F785
:100D3000622F20911901422F50E021E030E002C0E3
:100D4000220F331F4A95E2F7622B20911A01422F9E
:100D500050E021E030E002C0220F331F4A95E2F755
:100D6000622B20911C01422F50E021E030E002C0B4
:100D7000220F331F4A95E2F7622B20911D01422F6B
:100D800050E021E030E002C0220F331F4A95E2F725
:100D9000262BFC012083A0C480911601909117019D
:100DA00020911A01422F50E021E030E002C0220FD2
:100DB000331F4A95E2F7622F20911C01422F50E029
:100DC00021E030E002C0220F331F4A95E2F7622B88
:100DD00020911E01422F50E021E030E002C0220F9E
:100DE000331F4A95E2F7262BFC01208375C48091BE
:100DF00016019091170120911801422F50E021E037
:100E000030E002C0220F331F4A95E2F7622F209193
:100E10001901422F50E021E030E002C0220F331FC1
:100E20004A95E2F7622B20911C01422F50E021E00D
:100E300030E002C0220F331F4A95E2F7622B209167
:100E40001D01422F50E021E030E002C0220F331F8D
:100E50004A95E2F7622B20911E01422F50E021E0DB
:100E600030E002C0220F331F4A95E2F7262BFC0127
:100E7000208332C4809116019091170120911801AE
:100E8000422F50E021E030E002C0220F331F4A958C
:100E9000E2F7622F20911C01422F50E021E030E068
:100EA00002C0220F331F4A95E2F7622B20911D01E9
:100EB000422F50E021E030E002C0220F331F4A955C
:100EC000E2F7262BFC01208307C480911601909144
:100ED000170120911C01422F50E021E030E002C0B8
:100EE000220F331F4A95E2F7622F20911E01422FF5
:100EF00050E021E030E002C0220F331F4A95E2F7B4
:100F0000262BFC012083E8C38091160190911701E4
:100F100020911B01422F50E021E030E002C0220F5F
:100F2000331F4A95E2F7622F20911C01422F50E0B7
:100F300021E030E002C0220F331F4A95E2F7622B16
:100F400020911D01422F50E021E030E002C0220F2D
:100F5000331F4A95E2F7622B20911E01422F50E089
:100F600021E030E002C0220F331F4A95E2F7262B22
:100F7000FC012083B1C3809116019091170120914B
:100F80001901422F50E021E030E002C0220F331F50
:100F90004A95E2F7622F20911A01422F50E021E09A
:100FA00030E002C0220F331F4A95E2F7622B2091F6
:100FB0001B01422F50E021E030E002C0220F331F1E
:100FC0004A95E2F7622B20911C01422F50E021E06C
:100FD00030E002C0220F331F4A95E2F7622B2091C6
:100FE0001D01422F50E021E030E002C0220F331FEC
:100FF0004A95E2F7262BFC0120836EC380911601EF
:101000009091170120911A01422F50E021E030E029
:1010100002C0220F331F4A95E2F7622F20911B0175
:10102000422F50E021E030E002C0220F331F4A95EA
:10103000E2F7622B20911C01422F50E021E030E0CA
:1010400002C0220F331F4A95E2F7262BFC012083B2
:1010500043C3809116019091170120911901422FED
:1010600050E021E030E002C0220F331F4A95E2F742
:10107000622F20911B01422F50E021E030E002C09E
:10108000220F331F4A95E2F7622B20911D01422F58
:1010900050E021E030E002C0220F331F4A95E2F712
:1010A000262BFC01208318C3809116019091170113
:1010B00020911901422F50E021E030E002C0220FC0
:1010C000331F4A95E2F7622F20911D01422F50E015
:1010D00021E030E002C0220F331F4A95E2F7622B75
:1010E00020911E01422F50E021E030E002C0220F8B
:1010F000331F4A95E2F7262BFC012083EDC2809135
:1011000016019091170120911801422F50E021E023
:1011100030E002C0220F331F4A95E2F7622F209180
:101120001B01422F50E021E030E002C0220F331FAC
:101130004A95E2F7622B20911E01422F50E021E0F8
:1011400030E002C0220F331F4A95E2F7262BFC0144
:101150002083C2C28091160190911701209119013C
:10116000422F50E021E030E002C0220F331F4A95A9
:10117000E2F7622F20911A01422F50E021E030E087
:1011800002C0220F331F4A95E2F7622B20911B0108
:10119000422F50E021E030E002C0220F331F4A9579
:1011A000E2F7622B20911D01422F50E021E030E058
:1011B00002C0220F331F4A95E2F7622B20911E01D5
:1011C000422F50E021E030E002C0220F331F4A9549
:1011D000E2F7262BFC0120837FC2809116019091BB
:1011E000170120911901422F50E021E030E002C0A8
:1011F000220F331F4A95E2F7622F20911C01422FE4
:1012000050E021E030E002C0220F331F4A95E2F7A0
:10121000622B20911E01422F50E021E030E002C0FD
:10122000220F331F4A95E2F7262BFC01208354C27C
:10123000809116019091170120911801422F50E0E2
:1012400021E030E002C0220F331F4A95E2F7622FFF
:1012500020911901422F50E021E030E002C0220F1E
:10126000331F4A95E2F7622B20911A01422F50E07A
:1012700021E030E002C0220F331F4A95E2F7622BD3
:1012800020911C01422F50E021E030E002C0220FEB
:10129000331F4A95E2F7622B20911E01422F50E046
:1012A00021E030E002C0220F331F4A95E2F7262BDF
:1012B000FC01208311C280911601909117012091A9
:1012C0001C01422F50E021E030E002C0220F331F0A
:1012D0004A95E2F7622F20911D01422F50E021E054
:1012E00030E002C0220F331F4A95E2F7622B2091B3
:1012F0001E01422F50E021E030E002C0220F331FD8
:101300004A95E2F7262BFC012083E6C18091160165
:101310009091170120911901422F50E021E030E017
:1013200002C0220F331F4A95E2F7622F20911A0163
:10133000422F50E021E030E002C0220F331F4A95D7
:10134000E2F7622B20911E01422F50E021E030E0B5
:1013500002C0220F331F4A95E2F7262BFC0120839F
:10136000BBC1809116019091170120911901422F64
:1013700050E021E030E002C0220F331F4A95E2F72F
:10138000622F20911A01422F50E021E030E002C08C
:10139000220F331F4A95E2F7622B20911C01422F46
:1013A00050E021E030E002C0220F331F4A95E2F7FF
:1013B000622B20911D01422F50E021E030E002C05D
:1013C000220F331F4A95E2F7262BFC01208384C1AC
:1013D000809116019091170120911901422F50E040
:1013E00021E030E002C0220F331F4A95E2F7622F5E
:1013F00020911D01422F50E021E030E002C0220F79
:10140000331F4A95E2F7262BFC01208365C18091AA
:1014100016019091170120911A01422F50E021E00E
:1014200030E002C0220F331F4A95E2F7622F20916D
:101430001C01422F50E021E030E002C0220F331F98
:101440004A95E2F7262BFC01208346C180911601C4
:101450009091170120911801422F50E021E030E0D7
:1014600002C0220F331F4A95E2F7622F20911B0121
:10147000422F50E021E030E002C0220F331F4A9596
:10148000E2F7262BFC01208327C180911601909161
:10149000170120911A01422F50E021E030E002C0F4
:1014A000220F331F4A95E2F7622F20911D01422F30
:1014B00050E021E030E002C0220F331F4A95E2F7EE
:1014C000622B20911E01422F50E021E030E002C04B
:1014D000220F331F4A95E2F7262BFC012083FCC024
:1014E000809116019091170120911A01422F50E02E
:1014F00021E030E002C0220F331F4A95E2F7622F4D
:1015000020911D01422F50E021E030E002C0220F67
:10151000331F4A95E2F7262BFC012083DDC0809122
:1015200016019091170120911901422F50E021E0FE
:1015300030E002C0220F331F4A95E2F7622F20915C
:101540001C01422F50E021E030E002C0220F331F87
:101550004A95E2F7262BFC012083BEC0809116013C
:101560009091170120911801422F50E021E030E0C6
:1015700002C0220F331F4A95E2F7622F20911D010E
:10158000422F50E021E030E002C0220F331F4A9585
:10159000E2F7622B20911E01422F50E021E030E063
:1015A00002C0220F331F4A95E2F7262BFC0120834D
:1015B00093C0809116019091170120911B01422F39
:1015C00050E021E030E002C0220F331F4A95E2F7DD
:1015D000622F20911C01422F50E021E030E002C038
:1015E000220F331F4A95E2F7622B20911E01422FF2
:1015F00050E021E030E002C0220F331F4A95E2F7AD
:10160000262BFC01208368C0809116019091170160
:1016100020911A01422F50E021E030E002C0220F59
:10162000331F4A95E2F7622F20911B01422F50E0B1
:1016300021E030E002C0220F331F4A95E2F7622B0F
:1016400020911E01422F50E021E030E002C0220F25
:10165000331F4A95E2F7262BFC0120833DC0809181
:1016600016019091170120911801422F50E021E0BE
:1016700030E002C0220F331F4A95E2F7622F20911B
:101680001901422F50E021E030E002C0220F331F49
:101690004A95E2F7622B20911E01422F50E021E093
:1016A00030E002C0220F331F4A95E2F7262BFC01DF
:1016B000208312C0809116019091170120911E0184
:1016C000422F50E021E030E002C0220F331F4A9544
:1016D000E2F7FC012083000000000F90DF91CF9122
:1016E0000895CF93DF9300D000D0CDB7DEB76983E4
:1016F0007A838B839C8389819A81AB81BC8180931F
:101700000E0190930F01A0931001B09311018091ED
:101710000E0190910F01A0911001B09111018093E1
:10172000210190932201A0932301B0932401000092
:101730000F900F900F900F90DF91CF910895CF935E
:10174000DF93CDB7DEB781E890E02BE0FC0120838A
:1017500088E890E02DE730E0FC01318320838FE6BC
:1017600090E022E0FC01208384E890E0FC011182FB
:10177000108280910E0190910F01A0911001B09103
:1017800011018093210190932201A0932301B09332
:1017900024018FE590E02FE530E0F90120812068F9
:1017A000FC0120830000DF91CF910895CF93DF9358
:1017B000CDB7DEB781E890E0FC0110820000DF9138
:1017C000CF910895CF93DF93CDB7DEB781E08093BB
:1017D00020010000DF91CF9108951F920F92009099
:1017E0005F000F92112400905B000F922F933F93A4
:1017F0004F935F936F937F938F939F93AF93BF9319
:10180000EF93FF93CF93DF93CDB7DEB780912101A4
:1018100090912201A0912301B09124010197A10987
:10182000B1098093210190932201A0932301B093E9
:1018300024018091210190912201A0912301B09176
:101840002401892B8A2B8B2B91F40E94E20B80912F
:101850000E0190910F01A0911001B09111018093A0
:10186000210190932201A0932301B0932401000051
:10187000DF91CF91FF91EF91BF91AF919F918F91A8
:101880007F916F915F914F913F912F910F900092B7
:101890005B000F9000925F000F901F901895CF9300
:1018A000DF9300D01F92CDB7DEB79B838A83198266
:1018B0008A819B818130910559F082309105E9F050
:1018C000892BB1F581E090E09B838A83198233C034
:1018D00080912601882361F080911501882341F0D1
:1018E00082E090E09B838A8381E08093250123C07E
:1018F00081E090E09B838A831EC08091260188232B
:1019000091F082E090E09B838A8380912501803171
:1019100021F481E0809325010EC080912501880F7C
:101920008093250108C081E090E09B838A8303C0F7
:101930001B821A8200008A819B81009759F09923AB
:101940005CF003974CF482E290E020912501FC01C9
:10195000208303C0000001C000008A819B810F909A
:101960000F900F90DF91CF910895CF93DF9300D028
:101970001F92CDB7DEB79B838A8380E290E0FC01A3
:1019800080818095807889838A819B8181309105CF
:1019900051F082309105F1F0892B49F581E090E01A
:1019A0009B838A8327C08981882329F481E090E082
:1019B0009B838A831FC082E090E09B838A8380910F
:1019C0002601882321F481E08093260113C0109220
:1019D000260110C08981882329F481E090E09B834F
:1019E0008A8308C082E090E09B838A8303C01B82C5
:1019F0001A82000000008A819B810F900F900F9047
:101A0000DF91CF9108950F931F93CF93DF93CDB7BD
:101A1000DEB729970FB6F894DEBF0FBECDBF81E2C7
:101A200090E02FE1FC01208382E290E020EEFC01B7
:101A3000208384E290E02FEFFC01208385E290E098
:101A4000FC01108287E290E02FE1FC01208388E214
:101A500090E020EEFC0120838AE290E02FEFFC0171
:101A600020838BE290E0FC01108289E291E09F8369
:101A70008E8384E391E09987888782E090E09C835D
:101A80008B838FEF8D838D818093290182E390E09A
:101A9000A0E0B0E080932A0190932B01A0932C0149
:101AA000B0932D0180912A0190912B01A0912C01DE
:101AB000B0912D0180932E0190932F01A0933001BE
:101AC000B093310185EB9CE0909333018093320118
:101AD0008D818093340182E390E0A0E0B0E08093B8
:101AE000350190933601A0933701B093380180916E
:101AF000350190913601A0913701B0913801809362
:101B0000390190933A01A0933B01B0933C018FE4DB
:101B10009CE090933E0180933D0162E370E080E0A1
:101B200090E00E94710B0E949F0B1A8219829BC049
:101B300089819A81880F991F9E012F5F3F4F820FE5
:101B4000931F0596FC0180819181FC0125813681DE
:101B50004781508589819A81880F991FBE016F5FE7
:101B60007F4F860F971F0596FC0180819181FC01B4
:101B700081819281A381B481281739074A075B07C5
:101B800009F045C089819A81880F991F9E012F5FB6
:101B90003F4F820F931F0596FC01008111818981BF
:101BA0009A81880F991F9E012F5F3F4F820F931FCD
:101BB0000596FC0180819181FC0121853285898116
:101BC0009A81880F991FAE014F5F5F4F840F951F59
:101BD0000596FC0180819181FC018081082E000C1A
:101BE000990BF9010995F801808389819A81880F01
:101BF000991F9E012F5F3F4F820F931F0596FC0197
:101C000080819181FC01158216821782108689815C
:101C10009A81880F991F9E012F5F3F4F820F931F5C
:101C20000596FC012081318189819A81880F991F55
:101C3000AE014F5F5F4F840F951F0596FC018081B9
:101C40009181FC0185819681A781B085C296A11DF5
:101C5000B11DF90185839683A783B08789819A8115
:101C600001969A83898329813A818B819C812817E7
:101C7000390708F45DCF0000809120018823E1F34B
:101C80001092200152CFEE0FFF1F0024001C0BBE4C
:0C1C90000790F691E02D0994F894FFCF26
:101C9C0000000002000000009A000000000001009B
:101CAC0000000201030125000706040201030005E0
:00000001FF
