:100000000C9481000C94A0000C94A0000C94A0000F
:100010000C94A0000C94A0000C94A0000C94A000E0
:100020000C94A0000C94A0000C94A0000C94A000D0
:100030000C94A0000C94880C0C94A0000C94A000CC
:100040000C94A0000C94A0000C94A0000C94A000B0
:100050000C94A0000C94A0000C94A0000C94A000A0
:100060000C94A0000C94A0000C94A0000C94A00090
:100070000C94A0000C94A0000C94A0000C94A00080
:100080000C94A0000C94A0000C94A000E80038018F
:1000900058019C01E00118025C02AC02D802340352
:1000A0008403D40324047304C2041105600572059B
:1000B000B505F8052F064E068506B006E7062A07A1
:1000C00055079807C307E20719085C088708B208B4
:1000D000DD0808094B097609B909E4090F0A460A3F
:1000E000650A840AA30ACE0AED0A0C0B370B620BD1
:1000F0008D0BBE0DD40D5C0E690E760E870E3D0E77
:100100004D0E11241FBECFEFD0E4DEBFCDBF11E0F6
:10011000A0E0B1E0EAECF2E200E00BBF02C0079021
:100120000D92A633B107D9F721E0A6E3B1E001C0F3
:100130001D92AF38B207E1F70E94850F0C9463114E
:100140000C940000CF93DF9300D01F92CDB7DEB7A1
:1001500089837B836A8389818A3031F48A819B8198
:10016000BC018DE00E94A20080EC90E0FC01808147
:10017000882F90E080729927892BB1F386EC90E06C
:100180002981FC01208380E090E00F900F900F9078
:10019000DF91CF910895CF93DF931F92CDB7DEB754
:1001A00089838981882F90E0092E000CAA0BBB0B54
:1001B00040E050E022E330E0841B950B281739071C
:1001C00010F40C94B80B8A5B9F4FFC010C945A11ED
:1001D000809116019091170120912D01422F50E03E
:1001E00021E030E002C0220F331F4A95E2F7622F70
:1001F00020912E01422F50E021E030E002C0220F7A
:10020000331F4A95E2F7622B20912F01422F50E0D5
:1002100021E030E002C0220F331F4A95E2F7622B43
:1002200020913001422F50E021E030E002C0220F47
:10023000331F4A95E2F7622B20913101422F50E0A3
:1002400021E030E002C0220F331F4A95E2F7622B13
:1002500020913201422F50E021E030E002C0220F15
:10026000331F4A95E2F7262BFC0120830C94070CE0
:10027000809116019091170120912E01422F50E09C
:1002800021E030E002C0220F331F4A95E2F7622FCF
:1002900020912F01422F50E021E030E002C0220FD8
:1002A000331F4A95E2F7262BFC0120830C94070CA0
:1002B000809116019091170120912D01422F50E05D
:1002C00021E030E002C0220F331F4A95E2F7622F8F
:1002D00020912E01422F50E021E030E002C0220F99
:1002E000331F4A95E2F7622B20913001422F50E0F4
:1002F00021E030E002C0220F331F4A95E2F7622B63
:1003000020913101422F50E021E030E002C0220F65
:10031000331F4A95E2F7622B20913301422F50E0C0
:1003200021E030E002C0220F331F4A95E2F7262B6E
:10033000FC0120830C94070C809116019091170109
:1003400020912D01422F50E021E030E002C0220F29
:10035000331F4A95E2F7622F20912E01422F50E081
:1003600021E030E002C0220F331F4A95E2F7622BF2
:1003700020912F01422F50E021E030E002C0220FF7
:10038000331F4A95E2F7622B20913001422F50E053
:1003900021E030E002C0220F331F4A95E2F7622BC2
:1003A00020913301422F50E021E030E002C0220FC3
:1003B000331F4A95E2F7262BFC0120830C94070C8F
:1003C000809116019091170120912E01422F50E04B
:1003D00021E030E002C0220F331F4A95E2F7622F7E
:1003E00020912F01422F50E021E030E002C0220F87
:1003F000331F4A95E2F7622B20913201422F50E0E1
:1004000021E030E002C0220F331F4A95E2F7622B51
:1004100020913301422F50E021E030E002C0220F52
:10042000331F4A95E2F7262BFC0120830C94070C1E
:10043000809116019091170120912D01422F50E0DB
:1004400021E030E002C0220F331F4A95E2F7622F0D
:1004500020912F01422F50E021E030E002C0220F16
:10046000331F4A95E2F7622B20913001422F50E072
:1004700021E030E002C0220F331F4A95E2F7622BE1
:1004800020913201422F50E021E030E002C0220FE3
:10049000331F4A95E2F7622B20913301422F50E03F
:1004A00021E030E002C0220F331F4A95E2F7262BED
:1004B000FC0120830C94070C809116019091170188
:1004C00020912D01422F50E021E030E002C0220FA8
:1004D000331F4A95E2F7622F20912F01422F50E0FF
:1004E00021E030E002C0220F331F4A95E2F7622B71
:1004F00020913001422F50E021E030E002C0220F75
:10050000331F4A95E2F7622B20913101422F50E0D0
:1005100021E030E002C0220F331F4A95E2F7622B40
:1005200020913201422F50E021E030E002C0220F42
:10053000331F4A95E2F7622B20913301422F50E09E
:1005400021E030E002C0220F331F4A95E2F7262B4C
:10055000FC0120830C94070C8091160190911701E7
:1005600020912D01422F50E021E030E002C0220F07
:10057000331F4A95E2F7622F20912E01422F50E05F
:1005800021E030E002C0220F331F4A95E2F7622BD0
:1005900020912F01422F50E021E030E002C0220FD5
:1005A000331F4A95E2F7262BFC0120830C94070C9D
:1005B000809116019091170120912D01422F50E05A
:1005C00021E030E002C0220F331F4A95E2F7622F8C
:1005D00020912E01422F50E021E030E002C0220F96
:1005E000331F4A95E2F7622B20912F01422F50E0F2
:1005F00021E030E002C0220F331F4A95E2F7622B60
:1006000020913001422F50E021E030E002C0220F63
:10061000331F4A95E2F7622B20913101422F50E0BF
:1006200021E030E002C0220F331F4A95E2F7622B2F
:1006300020913201422F50E021E030E002C0220F31
:10064000331F4A95E2F7622B20913301422F50E08D
:1006500021E030E002C0220F331F4A95E2F7262B3B
:10066000FC0120830C94070C8091160190911701D6
:1006700020912D01422F50E021E030E002C0220FF6
:10068000331F4A95E2F7622F20912E01422F50E04E
:1006900021E030E002C0220F331F4A95E2F7622BBF
:1006A00020912F01422F50E021E030E002C0220FC4
:1006B000331F4A95E2F7622B20913001422F50E020
:1006C00021E030E002C0220F331F4A95E2F7622B8F
:1006D00020913201422F50E021E030E002C0220F91
:1006E000331F4A95E2F7622B20913301422F50E0ED
:1006F00021E030E002C0220F331F4A95E2F7262B9B
:10070000FC0120830C94070C809116019091170135
:1007100020912D01422F50E021E030E002C0220F55
:10072000331F4A95E2F7622F20912E01422F50E0AD
:1007300021E030E002C0220F331F4A95E2F7622B1E
:1007400020912F01422F50E021E030E002C0220F23
:10075000331F4A95E2F7622B20913101422F50E07E
:1007600021E030E002C0220F331F4A95E2F7622BEE
:1007700020913201422F50E021E030E002C0220FF0
:10078000331F4A95E2F7622B20913301422F50E04C
:1007900021E030E002C0220F331F4A95E2F7262BFA
:1007A000FC0120830C94070C809116019091170195
:1007B00020912D01422F50E021E030E002C0220FB5
:1007C000331F4A95E2F7622F20912E01422F50E00D
:1007D00021E030E002C0220F331F4A95E2F7622B7E
:1007E00020912F01422F50E021E030E002C0220F83
:1007F000331F4A95E2F7622B20913001422F50E0DF
:1008000021E030E002C0220F331F4A95E2F7622B4D
:1008100020913201422F50E021E030E002C0220F4F
:10082000331F4A95E2F7622B20913301422F50E0AB
:1008300021E030E002C0220F331F4A95E2F7262B59
:10084000FC0120830C94070C8091160190911701F4
:1008500020912D01422F50E021E030E002C0220F14
:10086000331F4A95E2F7622F20912E01422F50E06C
:1008700021E030E002C0220F331F4A95E2F7622BDD
:1008800020912F01422F50E021E030E002C0220FE2
:10089000331F4A95E2F7622B20913001422F50E03E
:1008A00021E030E002C0220F331F4A95E2F7622BAD
:1008B00020913201422F50E021E030E002C0220FAF
:1008C000331F4A95E2F7622B20913301422F50E00B
:1008D00021E030E002C0220F331F4A95E2F7262BB9
:1008E000FC01208394C780911601909117012091FB
:1008F0002D01422F50E021E030E002C0220F331FD3
:100900004A95E2F7622F20912E01422F50E021E01C
:1009100030E002C0220F331F4A95E2F7622B20918C
:100920002F01422F50E021E030E002C0220F331FA0
:100930004A95E2F7622B20913001422F50E021E0EE
:1009400030E002C0220F331F4A95E2F7622B20915C
:100950003201422F50E021E030E002C0220F331F6D
:100960004A95E2F7622B20913301422F50E021E0BB
:1009700030E002C0220F331F4A95E2F7262BFC011C
:10098000208345C7809116019091170120912D0178
:10099000422F50E021E030E002C0220F331F4A9581
:1009A000E2F7622F20912E01422F50E021E030E04B
:1009B00002C0220F331F4A95E2F7622B20912F01CC
:1009C000422F50E021E030E002C0220F331F4A9551
:1009D000E2F7622B20913001422F50E021E030E01D
:1009E00002C0220F331F4A95E2F7622B2091320199
:1009F000422F50E021E030E002C0220F331F4A9521
:100A0000E2F7622B20913301422F50E021E030E0E9
:100A100002C0220F331F4A95E2F7262BFC012083E8
:100A2000F6C6809116019091170120912D01422F59
:100A300050E021E030E002C0220F331F4A95E2F778
:100A4000622F20912E01422F50E021E030E002C0C1
:100A5000220F331F4A95E2F7622B20912F01422F7C
:100A600050E021E030E002C0220F331F4A95E2F748
:100A7000622B20913001422F50E021E030E002C093
:100A8000220F331F4A95E2F7622B20913201422F49
:100A900050E021E030E002C0220F331F4A95E2F718
:100AA000622B20913301422F50E021E030E002C060
:100AB000220F331F4A95E2F7262BFC012083A7C69D
:100AC000809116019091170120913401422F50E03E
:100AD00021E030E002C0220F331F4A95E2F7FC010B
:100AE000208395C6809116019091170120912D01C8
:100AF000422F50E021E030E002C0220F331F4A9520
:100B0000E2F7622F20912F01422F50E021E030E0E8
:100B100002C0220F331F4A95E2F7622B2091300169
:100B2000422F50E021E030E002C0220F331F4A95EF
:100B3000E2F7622B20913101422F50E021E030E0BA
:100B400002C0220F331F4A95E2F7622B2091320137
:100B5000422F50E021E030E002C0220F331F4A95BF
:100B6000E2F7262BFC01208352C68091160190915A
:100B7000170120912E01422F50E021E030E002C009
:100B8000220F331F4A95E2F7622F20912F01422F47
:100B900050E021E030E002C0220F331F4A95E2F717
:100BA000622B20913101422F50E021E030E002C061
:100BB000220F331F4A95E2F7622B20913201422F18
:100BC00050E021E030E002C0220F331F4A95E2F7E7
:100BD000622B20913301422F50E021E030E002C02F
:100BE000220F331F4A95E2F7262BFC0120830FC604
:100BF000809116019091170120912F01422F50E012
:100C000021E030E002C0220F331F4A95E2F7622F45
:100C100020913101422F50E021E030E002C0220F4C
:100C2000331F4A95E2F7622B20913201422F50E0A8
:100C300021E030E002C0220F331F4A95E2F7622B19
:100C400020913301422F50E021E030E002C0220F1A
:100C5000331F4A95E2F7262BFC012083D8C58091EB
:100C600016019091170120913101422F50E021E0AF
:100C700030E002C0220F331F4A95E2F7622F209125
:100C80003201422F50E021E030E002C0220F331F3A
:100C90004A95E2F7262BFC012083B9C58091160105
:100CA0009091170120912E01422F50E021E030E079
:100CB00002C0220F331F4A95E2F7622F20912F01C5
:100CC000422F50E021E030E002C0220F331F4A954E
:100CD000E2F7622B20913001422F50E021E030E01A
:100CE00002C0220F331F4A95E2F7622B2091310197
:100CF000422F50E021E030E002C0220F331F4A951E
:100D0000E2F7262BFC01208382C580911601909189
:100D1000170120913001422F50E021E030E002C065
:100D2000220F331F4A95E2F7622F20913101422FA3
:100D300050E021E030E002C0220F331F4A95E2F775
:100D4000622B20913201422F50E021E030E002C0BE
:100D5000220F331F4A95E2F7262BFC01208357C54B
:100D6000809116019091170120912D01422F50E0A2
:100D700021E030E002C0220F331F4A95E2F7622FD4
:100D800020912F01422F50E021E030E002C0220FDD
:100D9000331F4A95E2F7622B20913101422F50E038
:100DA00021E030E002C0220F331F4A95E2F7622BA8
:100DB00020913301422F50E021E030E002C0220FA9
:100DC000331F4A95E2F7262BFC01208320C5809132
:100DD00016019091170120912D01422F50E021E042
:100DE00030E002C0220F331F4A95E2F7622F2091B4
:100DF0002E01422F50E021E030E002C0220F331FCD
:100E00004A95E2F7622B20912F01422F50E021E01A
:100E100030E002C0220F331F4A95E2F7622B209187
:100E20003101422F50E021E030E002C0220F331F99
:100E30004A95E2F7622B20913201422F50E021E0E7
:100E400030E002C0220F331F4A95E2F7262BFC0147
:100E50002083DDC4809116019091170120912F010C
:100E6000422F50E021E030E002C0220F331F4A95AC
:100E7000E2F7622F20913101422F50E021E030E073
:100E800002C0220F331F4A95E2F7622B20913301F3
:100E9000422F50E021E030E002C0220F331F4A957C
:100EA000E2F7262BFC012083B2C4809116019091B9
:100EB000170120912D01422F50E021E030E002C0C7
:100EC000220F331F4A95E2F7622F20912E01422F05
:100ED00050E021E030E002C0220F331F4A95E2F7D4
:100EE000622B20913101422F50E021E030E002C01E
:100EF000220F331F4A95E2F7622B20913201422FD5
:100F000050E021E030E002C0220F331F4A95E2F7A3
:100F1000622B20913301422F50E021E030E002C0EB
:100F2000220F331F4A95E2F7262BFC0120836FC462
:100F3000809116019091170120912D01422F50E0D0
:100F400021E030E002C0220F331F4A95E2F7622F02
:100F500020913101422F50E021E030E002C0220F09
:100F6000331F4A95E2F7622B20913201422F50E065
:100F700021E030E002C0220F331F4A95E2F7262B12
:100F8000FC01208344C480911601909117012091A7
:100F90003101422F50E021E030E002C0220F331F28
:100FA0004A95E2F7622F20913301422F50E021E071
:100FB00030E002C0220F331F4A95E2F7262BFC01D6
:100FC000208325C480911601909117012091300152
:100FD000422F50E021E030E002C0220F331F4A953B
:100FE000E2F7622F20913101422F50E021E030E002
:100FF00002C0220F331F4A95E2F7622B2091320183
:10100000422F50E021E030E002C0220F331F4A950A
:10101000E2F7622B20913301422F50E021E030E0D3
:1010200002C0220F331F4A95E2F7262BFC012083D2
:10103000EEC3809116019091170120912E01422F4D
:1010400050E021E030E002C0220F331F4A95E2F762
:10105000622F20912F01422F50E021E030E002C0AA
:10106000220F331F4A95E2F7622B20913001422F65
:1010700050E021E030E002C0220F331F4A95E2F732
:10108000622B20913101422F50E021E030E002C07C
:10109000220F331F4A95E2F7622B20913201422F33
:1010A00050E021E030E002C0220F331F4A95E2F702
:1010B000262BFC012083ABC3809116019091170170
:1010C00020912F01422F50E021E030E002C0220F9A
:1010D000331F4A95E2F7622F20913001422F50E0F2
:1010E00021E030E002C0220F331F4A95E2F7622B65
:1010F00020913101422F50E021E030E002C0220F68
:10110000331F4A95E2F7262BFC01208380C3809190
:1011100016019091170120912E01422F50E021E0FD
:1011200030E002C0220F331F4A95E2F7622F209170
:101130003001422F50E021E030E002C0220F331F87
:101140004A95E2F7622B20913201422F50E021E0D4
:1011500030E002C0220F331F4A95E2F7262BFC0134
:10116000208355C3809116019091170120912E0183
:10117000422F50E021E030E002C0220F331F4A9599
:10118000E2F7622F20913201422F50E021E030E05F
:1011900002C0220F331F4A95E2F7622B20913301E0
:1011A000422F50E021E030E002C0220F331F4A9569
:1011B000E2F7262BFC0120832AC38091160190912F
:1011C000170120912D01422F50E021E030E002C0B4
:1011D000220F331F4A95E2F7622F20913001422FF0
:1011E00050E021E030E002C0220F331F4A95E2F7C1
:1011F000622B20913301422F50E021E030E002C009
:10120000220F331F4A95E2F7262BFC012083FFC2F1
:10121000809116019091170120912E01422F50E0EC
:1012200021E030E002C0220F331F4A95E2F7622F1F
:1012300020912F01422F50E021E030E002C0220F28
:10124000331F4A95E2F7622B20913001422F50E084
:1012500021E030E002C0220F331F4A95E2F7622BF3
:1012600020913201422F50E021E030E002C0220FF5
:10127000331F4A95E2F7622B20913301422F50E051
:1012800021E030E002C0220F331F4A95E2F7262BFF
:10129000FC012083BCC2809116019091170120911E
:1012A0002E01422F50E021E030E002C0220F331F18
:1012B0004A95E2F7622F20913101422F50E021E060
:1012C00030E002C0220F331F4A95E2F7622B2091D3
:1012D0003301422F50E021E030E002C0220F331FE3
:1012E0004A95E2F7262BFC01208391C280911601DA
:1012F0009091170120912D01422F50E021E030E024
:1013000002C0220F331F4A95E2F7622F20912E016F
:10131000422F50E021E030E002C0220F331F4A95F7
:10132000E2F7622B20912F01422F50E021E030E0C4
:1013300002C0220F331F4A95E2F7622B2091310140
:10134000422F50E021E030E002C0220F331F4A95C7
:10135000E2F7622B20913301422F50E021E030E090
:1013600002C0220F331F4A95E2F7262BFC0120838F
:101370004EC2809116019091170120913101422FA8
:1013800050E021E030E002C0220F331F4A95E2F71F
:10139000622F20913201422F50E021E030E002C064
:1013A000220F331F4A95E2F7622B20913301422F1F
:1013B00050E021E030E002C0220F331F4A95E2F7EF
:1013C000262BFC01208323C28091160190911701E6
:1013D00020912E01422F50E021E030E002C0220F88
:1013E000331F4A95E2F7622F20912F01422F50E0E0
:1013F00021E030E002C0220F331F4A95E2F7622B52
:1014000020913301422F50E021E030E002C0220F52
:10141000331F4A95E2F7262BFC012083F8C1809107
:1014200016019091170120912E01422F50E021E0EA
:1014300030E002C0220F331F4A95E2F7622F20915D
:101440002F01422F50E021E030E002C0220F331F75
:101450004A95E2F7622B20913101422F50E021E0C2
:1014600030E002C0220F331F4A95E2F7622B209131
:101470003201422F50E021E030E002C0220F331F42
:101480004A95E2F7262BFC012083C1C18091160109
:101490009091170120912E01422F50E021E030E081
:1014A00002C0220F331F4A95E2F7622F20913201CA
:1014B000422F50E021E030E002C0220F331F4A9556
:1014C000E2F7262BFC012083A2C1809116019091A6
:1014D000170120912F01422F50E021E030E002C09F
:1014E000220F331F4A95E2F7622F20913101422FDC
:1014F00050E021E030E002C0220F331F4A95E2F7AE
:10150000262BFC01208383C1809116019091170145
:1015100020912D01422F50E021E030E002C0220F47
:10152000331F4A95E2F7622F20913001422F50E09D
:1015300021E030E002C0220F331F4A95E2F7262B4C
:10154000FC01208364C180911601909117012091C4
:101550002F01422F50E021E030E002C0220F331F64
:101560004A95E2F7622F20913201422F50E021E0AC
:1015700030E002C0220F331F4A95E2F7622B209120
:101580003301422F50E021E030E002C0220F331F30
:101590004A95E2F7262BFC01208339C18091160180
:1015A0009091170120912F01422F50E021E030E06F
:1015B00002C0220F331F4A95E2F7622F20913201B9
:1015C000422F50E021E030E002C0220F331F4A9545
:1015D000E2F7262BFC0120831AC18091160190911D
:1015E000170120912E01422F50E021E030E002C08F
:1015F000220F331F4A95E2F7622F20913101422FCB
:1016000050E021E030E002C0220F331F4A95E2F79C
:10161000262BFC012083FBC08091160190911701BD
:1016200020912D01422F50E021E030E002C0220F36
:10163000331F4A95E2F7622F20913201422F50E08A
:1016400021E030E002C0220F331F4A95E2F7622BFF
:1016500020913301422F50E021E030E002C0220F00
:10166000331F4A95E2F7262BFC012083D0C08091DE
:1016700016019091170120913001422F50E021E096
:1016800030E002C0220F331F4A95E2F7622F20910B
:101690003101422F50E021E030E002C0220F331F21
:1016A0004A95E2F7622B20913301422F50E021E06E
:1016B00030E002C0220F331F4A95E2F7262BFC01CF
:1016C0002083A5C0809116019091170120912F01D0
:1016D000422F50E021E030E002C0220F331F4A9534
:1016E000E2F7622F20913001422F50E021E030E0FC
:1016F00002C0220F331F4A95E2F7622B209133017B
:10170000422F50E021E030E002C0220F331F4A9503
:10171000E2F7262BFC0120837AC08091160190917C
:10172000170120912D01422F50E021E030E002C04E
:10173000220F331F4A95E2F7622F20912E01422F8C
:1017400050E021E030E002C0220F331F4A95E2F75B
:10175000622B20913301422F50E021E030E002C0A3
:10176000220F331F4A95E2F7262BFC0120834FC03E
:10177000809116019091170120912D01422F50E088
:1017800021E030E002C0220F331F4A95E2F7622FBA
:1017900020912E01422F50E021E030E002C0220FC4
:1017A000331F4A95E2F7622B20912F01422F50E020
:1017B00021E030E002C0220F331F4A95E2F7622B8E
:1017C00020913001422F50E021E030E002C0220F92
:1017D000331F4A95E2F7622B20913101422F50E0EE
:1017E00021E030E002C0220F331F4A95E2F7622B5E
:1017F00020913201422F50E021E030E002C0220F60
:10180000331F4A95E2F7262BFC01208300000000DD
:101810000F90DF91CF910895CF93DF9300D000D048
:10182000CDB7DEB769837A838B839C8389819A8164
:10183000AB81BC8180930E0190930F01A0931001A6
:10184000B093110180910E0190910F01A0911001B0
:10185000B09111018093370190933801A093390121
:10186000B0933A0100000F900F900F900F90DF910E
:10187000CF910895CF93DF93CDB7DEB781E890E0A5
:101880002BE0FC01208388E890E02DE730E0FC01AC
:10189000318320838FE690E022E0FC01208384E8FE
:1018A00090E0FC011182108280910E0190910F0155
:1018B000A0911001B09111018093370190933801EC
:1018C000A0933901B0933A018FE590E02FE530E025
:1018D000F90120812068FC0120830000DF91CF9175
:1018E0000895CF93DF93CDB7DEB781E890E0FC0198
:1018F00010820000DF91CF910895CF93DF93CDB791
:10190000DEB781E0809336010000DF91CF9108952A
:101910001F920F9200905F000F92112400905B00C5
:101920000F922F933F934F935F936F937F938F9378
:101930009F93AF93BF93EF93FF93CF93DF93CDB775
:10194000DEB78091370190913801A0913901B091B3
:101950003A010197A109B1098093370190933801A9
:10196000A0933901B0933A018091370190913801E9
:10197000A0913901B0913A01892B8A2B8B2B91F4DC
:101980000E947D0C80910E0190910F01A091100199
:10199000B09111018093370190933801A0933901E0
:1019A000B0933A010000DF91CF91FF91EF91BF9189
:1019B000AF919F918F917F916F915F914F913F91E7
:1019C0002F910F9000925B000F9000925F000F909C
:1019D0001F901895CF93DF9300D0CDB7DEB79A83D1
:1019E000898389819A818130910551F082309105F6
:1019F000E1F0892BA9F581E090E09A83898333C0D7
:101A000080913C01882361F080911501882341F089
:101A100082E090E09A83898381E080933B0123C038
:101A200081E090E09A8389831EC080913C018823E5
:101A300091F082E090E09A83898380913B0180312C
:101A400021F481E080933B010EC080913B01880F1F
:101A500080933B0108C081E090E09A83898303C0B2
:101A60001A821982000089819A81009759F099237E
:101A70005CF003974CF482E290E020913B01FC0182
:101A8000208303C0000001C0000089819A810F906B
:101A90000F90DF91CF910895CF93DF9300D01F92E5
:101AA000CDB7DEB79B838A8386E290E0FC0180811C
:101AB0008095807489838A819B818130910551F062
:101AC00082309105F1F0892B49F581E090E09B830C
:101AD0008A8327C08981882329F481E090E09B8351
:101AE0008A831FC082E090E09B838A8380913C01BF
:101AF000882321F481E080933C0113C010923C01C3
:101B000010C08981882329F481E090E09B838A8337
:101B100008C082E090E09B838A8303C01B821A8204
:101B2000000000008A819B810F900F900F90DF9141
:101B3000CF910895CF93DF9300D01F92CDB7DEB73A
:101B40009B838A8386E290E0FC0180818095807A85
:101B500089838A819B81092E000CAA0BBB0B40E074
:101B600050E027E030E0841B950B2817390708F474
:101B7000DFC087589F4FFC010C945A1181E090E020
:101B80009B838A8382E08093120181E0809313011A
:101B90001092150110923E01909112018091130153
:101BA000890F80931401C7C080913C018823C1F440
:101BB00089818038A9F490911301809114019817BC
:101BC00078F482E090E09B838A83809113018F5F99
:101BD00080931301809112018150809312014CC0B7
:101BE00080913C018823B1F48981803299F48091FD
:101BF0001301823078F083E090E09B838A838091A8
:101C00001301815080931301809112018F5F8093A3
:101C1000120132C080913C01882341F081E0809321
:101C2000150184E090E09B838A8385C08091120136
:101C3000282F30E080911301882F90E0820F931FAE
:101C40000A972CF086E090E09B838A8374C0809191
:101C50003E01882329F087E090E09B838A836BC054
:101C600081E090E09B838A8390911201809113011F
:101C7000890F809314015FC05EC080913F0188236B
:101C800029F486E090E09B838A8355C081E090E050
:101C90009B838A8310923F014EC080913F0188232D
:101CA00029F487E090E09B838A8306C081E090E07E
:101CB0009B838A8310923F018981803829F482E0D6
:101CC00090E09B838A8337C081E090E09B838A8386
:101CD00032C08981803229F483E090E09B838A833B
:101CE0002AC081E090E09B838A8325C080913C01DB
:101CF000882341F485E090E09B838A8381E0809390
:101D00003D0119C084E090E09B838A8314C081E088
:101D100090E09B838A8381E080931301909112016C
:101D200080911301F92FF81B8F2F8093120103C0AC
:101D30001B821A8200008A819B818630910544F4BF
:101D40008230910574F5009761F1019739F02AC04E
:101D50008630910531F00797A1F024C0109215014B
:101D600021C083E290E0FC018081882329F48091E6
:101D700012010E94CB0016C085E290E0FC011082A7
:101D800011C083E290E0FC018081882329F48091D6
:101D900012010E94CB0006C085E290E0FC01108297
:101DA00001C000008A819B810F900F900F90DF91FE
:101DB000CF910895CF93DF9300D0CDB7DEB79A834C
:101DC000898389819A818130910551F08230910512
:101DD000A9F0892BD1F481E090E09A83898318C01F
:101DE00080913D01882329F481E090E09A838983E2
:101DF0000FC082E090E09A8389830AC081E090E07E
:101E00009A83898310923D0103C01A8219820000CF
:101E100089819A8199230CF18230910504F102970E
:101E200009F01BC080913B01843031F48091130193
:101E3000880F8093130102C0109213019091120138
:101E400080911301890F80931201809112018823E0
:101E500041F481E080933E0105C0000003C0000012
:101E600001C0000089819A810F900F90DF91CF917E
:101E70000895CF93DF9300D0CDB7DEB79A838983DF
:101E8000809112010E94CB0089819A810F900F905E
:101E9000DF91CF910895CF93DF93CDB7DEB72A9727
:101EA0000FB6F894DEBF0FBECDBF9A87898728E0B2
:101EB000E9E1F1E0CE010196DC0101900D922A9555
:101EC000E1F788E290E020EEFC012083809113018D
:101ED000882F90E001979E012F5F3F4F820F931F45
:101EE000FC018081809340018BE290E020914001D1
:101EF000FC01208380E090E02A960FB6F894DEBFC4
:101F00000FBECDBFDF91CF9108950F931F93CF9355
:101F1000DF93CDB7DEB761970FB6F894DEBF0FBE83
:101F2000CDBF81E290E02FE1FC01208382E290E0CE
:101F300020EEFC01208384E290E02FEFFC0120835F
:101F400085E290E0FC01108287E290E02FE1FC0145
:101F5000208388E290E020EEFC0120838AE290E07A
:101F60002FEFFC0120838BE290E0FC0110828CE0DB
:101F7000E1E2F1E0DE01169601900D928A95E1F71B
:101F800086E090E09C838B838FEF8D838D8180939F
:101F9000430182E390E0A0E0B0E08093440190939D
:101FA0004501A0934601B09347018091440190916F
:101FB0004501A0914601B09147018093480190935B
:101FC0004901A0934A01B0934B018CE49DE09093AA
:101FD0004D0180934C018D8180934E0186E990E004
:101FE000A0E0B0E080934F0190935001A093510185
:101FF000B093520180914F0190915001A0915101F5
:10200000B09152018093530190935401A0935501D4
:10201000B09356018AEE9CE090935801809357014B
:102020008D818093590182E390E0A0E0B0E080933D
:102030005A0190935B01A0935C01B0935D01809184
:102040005A0190915B01A0915C01B0915D01809378
:102050005E0190935F01A0936001B093610189E3F9
:102060009FE090936301809362018D81809364016E
:1020700082E390E0A0E0B0E0809365019093660178
:10208000A0936701B093680180916501909166010A
:10209000A0916701B09168018093690190936A01F2
:1020A000A0936B01B0936C018BE49FE090936E0161
:1020B00080936D018D8180936F0188EC90E0A0E0AA
:1020C000B0E08093700190937101A0937201B0937E
:1020D00073018091700190917101A0917201B09192
:1020E00073018093740190937501A0937601B0936E
:1020F00077018AE99DE090937901809378018D8141
:1021000080937A0182E390E0A0E0B0E080937B01CD
:1021100090937C01A0937D01B0937E0180917B011F
:1021200090917C01A0917D01B0917E0180937F010F
:1021300090938001A0938101B09382018AED9EE08B
:10214000909384018093830162E370E080E090E0EB
:102150000E940C0C0E943A0C1A8219829BC0898141
:102160009A81880F991F9E012F5F3F4F820F931F07
:102170000596FC0180819181FC0125813681478192
:10218000508589819A81880F991FBE016F5F7F4FAB
:10219000860F971F0596FC0180819181FC0181814A
:1021A0009281A381B481281739074A075B0709F098
:1021B00045C089819A81880F991F9E012F5F3F4FEB
:1021C000820F931F0596FC010081118189819A81FC
:1021D000880F991F9E012F5F3F4F820F931F059617
:1021E000FC0180819181FC012185328589819A8160
:1021F000880F991FAE014F5F5F4F840F951F0596A3
:10220000FC0180819181FC018081082E000C990BDA
:10221000F9010995F801808389819A81880F991FB6
:102220009E012F5F3F4F820F931F0596FC01808117
:102230009181FC01158216821782108689819A810C
:10224000880F991F9E012F5F3F4F820F931F0596A6
:10225000FC012081318189819A81880F991FAE010B
:102260004F5F5F4F840F951F0596FC018081918120
:10227000FC0185819681A781B085C296A11DB11D03
:10228000F90185839683A783B08789819A81019616
:102290009A83898329813A818B819C812817390708
:1022A00008F45DCF0000809136018823E1F310929D
:1022B000360152CFEE0FFF1F0024001C0BBE07900B
:0A22C000F691E02D0994F894FFCF89
:1022CA000000000200000000A2000000000001005F
:1022DA0000000201030125008080C0E0F0F8FCFE46
:1022EA00FF43014E01590164016F017A0107060497
:0622FA00020103000500D3
:00000001FF
