:100000000C9479000C9498000C9498000C9498002F
:100010000C9498000C9498000C9498000C94980000
:100020000C9498000C9498000C9498000C949800F0
:100030000C9498000C94ED0B0C9498000C94980080
:100040000C9498000C9498000C9498000C949800D0
:100050000C9498000C9498000C9498000C949800C0
:100060000C9498000C9498000C9498000C949800B0
:100070000C9498000C9498000C9498000C949800A0
:100080000C9498000C9498000C949800E0003001B7
:1000900050019401D80110025402A402D0022C0392
:1000A0007C03CB030E0445048804CB04020514052D
:1000B00057059A05D105F005270652068906CC0694
:1000C000F7063A0765078407BB07FE0729085408A7
:1000D0007F08AA08ED0818095B098609B109E80933
:1000E000070A260A450A700A8F0AAE0AD90A040BC3
:1000F0002F0B11241FBECFEFD0E4DEBFCDBF11E028
:10010000A0E0B1E0E6EEF0E200E00BBF02C0079035
:100110000D92A233B107D9F721E0A2E3B1E001C00B
:100120001D92AB38B207E1F70E94930E0C94711048
:100130000C940000CF93DF9300D01F92CDB7DEB7B1
:1001400089837B836A8389818A3031F48A819B81A8
:10015000BC018DE00E949A0080EC90E0FC0180815F
:10016000882F90E080729927892BB1F386EC90E07C
:100170002981FC01208380E090E00F900F900F9088
:10018000DF91CF910895CF93DF931F92CDB7DEB764
:1001900089838981882F90E0092E000CAA0BBB0B64
:1001A00040E050E022E330E0841B950B281739072C
:1001B00010F40C945A0B8A5B9F4FFC010C9468104E
:1001C000809116019091170120912901422F50E052
:1001D00021E030E002C0220F331F4A95E2F7622F80
:1001E00020912A01422F50E021E030E002C0220F8E
:1001F000331F4A95E2F7622B20912B01422F50E0EA
:1002000021E030E002C0220F331F4A95E2F7622B53
:1002100020912C01422F50E021E030E002C0220F5B
:10022000331F4A95E2F7622B20912D01422F50E0B7
:1002300021E030E002C0220F331F4A95E2F7622B23
:1002400020912E01422F50E021E030E002C0220F29
:10025000331F4A95E2F7262BFC0120830C946C0B8C
:10026000809116019091170120912A01422F50E0B0
:1002700021E030E002C0220F331F4A95E2F7622FDF
:1002800020912B01422F50E021E030E002C0220FEC
:10029000331F4A95E2F7262BFC0120830C946C0B4C
:1002A000809116019091170120912901422F50E071
:1002B00021E030E002C0220F331F4A95E2F7622F9F
:1002C00020912A01422F50E021E030E002C0220FAD
:1002D000331F4A95E2F7622B20912C01422F50E008
:1002E00021E030E002C0220F331F4A95E2F7622B73
:1002F00020912D01422F50E021E030E002C0220F7A
:10030000331F4A95E2F7622B20912F01422F50E0D4
:1003100021E030E002C0220F331F4A95E2F7262B7E
:10032000FC0120830C946C0B8091160190911701B5
:1003300020912901422F50E021E030E002C0220F3D
:10034000331F4A95E2F7622F20912A01422F50E095
:1003500021E030E002C0220F331F4A95E2F7622B02
:1003600020912B01422F50E021E030E002C0220F0B
:10037000331F4A95E2F7622B20912C01422F50E067
:1003800021E030E002C0220F331F4A95E2F7622BD2
:1003900020912F01422F50E021E030E002C0220FD7
:1003A000331F4A95E2F7262BFC0120830C946C0B3B
:1003B000809116019091170120912A01422F50E05F
:1003C00021E030E002C0220F331F4A95E2F7622F8E
:1003D00020912B01422F50E021E030E002C0220F9B
:1003E000331F4A95E2F7622B20912E01422F50E0F5
:1003F00021E030E002C0220F331F4A95E2F7622B62
:1004000020912F01422F50E021E030E002C0220F66
:10041000331F4A95E2F7262BFC0120830C946C0BCA
:10042000809116019091170120912901422F50E0EF
:1004300021E030E002C0220F331F4A95E2F7622F1D
:1004400020912B01422F50E021E030E002C0220F2A
:10045000331F4A95E2F7622B20912C01422F50E086
:1004600021E030E002C0220F331F4A95E2F7622BF1
:1004700020912E01422F50E021E030E002C0220FF7
:10048000331F4A95E2F7622B20912F01422F50E053
:1004900021E030E002C0220F331F4A95E2F7262BFD
:1004A000FC0120830C946C0B809116019091170134
:1004B00020912901422F50E021E030E002C0220FBC
:1004C000331F4A95E2F7622F20912B01422F50E013
:1004D00021E030E002C0220F331F4A95E2F7622B81
:1004E00020912C01422F50E021E030E002C0220F89
:1004F000331F4A95E2F7622B20912D01422F50E0E5
:1005000021E030E002C0220F331F4A95E2F7622B50
:1005100020912E01422F50E021E030E002C0220F56
:10052000331F4A95E2F7622B20912F01422F50E0B2
:1005300021E030E002C0220F331F4A95E2F7262B5C
:10054000FC0120830C946C0B809116019091170193
:1005500020912901422F50E021E030E002C0220F1B
:10056000331F4A95E2F7622F20912A01422F50E073
:1005700021E030E002C0220F331F4A95E2F7622BE0
:1005800020912B01422F50E021E030E002C0220FE9
:10059000331F4A95E2F7262BFC0120830C946C0B49
:1005A000809116019091170120912901422F50E06E
:1005B00021E030E002C0220F331F4A95E2F7622F9C
:1005C00020912A01422F50E021E030E002C0220FAA
:1005D000331F4A95E2F7622B20912B01422F50E006
:1005E00021E030E002C0220F331F4A95E2F7622B70
:1005F00020912C01422F50E021E030E002C0220F78
:10060000331F4A95E2F7622B20912D01422F50E0D3
:1006100021E030E002C0220F331F4A95E2F7622B3F
:1006200020912E01422F50E021E030E002C0220F45
:10063000331F4A95E2F7622B20912F01422F50E0A1
:1006400021E030E002C0220F331F4A95E2F7262B4B
:10065000FC0120830C946C0B809116019091170182
:1006600020912901422F50E021E030E002C0220F0A
:10067000331F4A95E2F7622F20912A01422F50E062
:1006800021E030E002C0220F331F4A95E2F7622BCF
:1006900020912B01422F50E021E030E002C0220FD8
:1006A000331F4A95E2F7622B20912C01422F50E034
:1006B00021E030E002C0220F331F4A95E2F7622B9F
:1006C00020912E01422F50E021E030E002C0220FA5
:1006D000331F4A95E2F7622B20912F01422F50E001
:1006E00021E030E002C0220F331F4A95E2F7262BAB
:1006F000FC0120830C946C0B8091160190911701E2
:1007000020912901422F50E021E030E002C0220F69
:10071000331F4A95E2F7622F20912A01422F50E0C1
:1007200021E030E002C0220F331F4A95E2F7622B2E
:1007300020912B01422F50E021E030E002C0220F37
:10074000331F4A95E2F7622B20912D01422F50E092
:1007500021E030E002C0220F331F4A95E2F7622BFE
:1007600020912E01422F50E021E030E002C0220F04
:10077000331F4A95E2F7622B20912F01422F50E060
:1007800021E030E002C0220F331F4A95E2F7262B0A
:10079000FC012083A1C7809116019091170120913F
:1007A0002B01422F50E021E030E002C0220F331F26
:1007B0004A95E2F7622F20912C01422F50E021E070
:1007C00030E002C0220F331F4A95E2F7622B2091DE
:1007D0002D01422F50E021E030E002C0220F331FF4
:1007E0004A95E2F7622B20912E01422F50E021E042
:1007F00030E002C0220F331F4A95E2F7622B2091AE
:100800002F01422F50E021E030E002C0220F331FC1
:100810004A95E2F7262BFC0120835EC780911601E2
:100820009091170120912901422F50E021E030E002
:1008300002C0220F331F4A95E2F7622F20912C014C
:10084000422F50E021E030E002C0220F331F4A95D2
:10085000E2F7622B20912D01422F50E021E030E0A1
:1008600002C0220F331F4A95E2F7622B20912E011E
:10087000422F50E021E030E002C0220F331F4A95A2
:10088000E2F7262BFC01208327C780911601909167
:10089000170120912A01422F50E021E030E002C0F0
:1008A000220F331F4A95E2F7622F20912B01422F2E
:1008B00050E021E030E002C0220F331F4A95E2F7FA
:1008C000622B20912C01422F50E021E030E002C049
:1008D000220F331F4A95E2F7622B20912D01422F00
:1008E00050E021E030E002C0220F331F4A95E2F7CA
:1008F000622B20912F01422F50E021E030E002C016
:10090000220F331F4A95E2F7262BFC012083E4C611
:10091000809116019091170120912901422F50E0FA
:1009200021E030E002C0220F331F4A95E2F7622F28
:1009300020912C01422F50E021E030E002C0220F34
:10094000331F4A95E2F7622B20912D01422F50E090
:1009500021E030E002C0220F331F4A95E2F7622BFC
:1009600020912E01422F50E021E030E002C0220F02
:10097000331F4A95E2F7622B20912F01422F50E05E
:1009800021E030E002C0220F331F4A95E2F7262B08
:10099000FC012083A1C6809116019091170120913E
:1009A0002901422F50E021E030E002C0220F331F26
:1009B0004A95E2F7622F20912D01422F50E021E06D
:1009C00030E002C0220F331F4A95E2F7622B2091DC
:1009D0002E01422F50E021E030E002C0220F331FF1
:1009E0004A95E2F7622B20912F01422F50E021E03F
:1009F00030E002C0220F331F4A95E2F7262BFC019C
:100A000020836AC6809116019091170120913001D0
:100A1000422F50E021E030E002C0220F331F4A9500
:100A2000E2F7FC01208358C68091160190911701CE
:100A300020912901422F50E021E030E002C0220F36
:100A4000331F4A95E2F7622F20912B01422F50E08D
:100A500021E030E002C0220F331F4A95E2F7622BFB
:100A600020912C01422F50E021E030E002C0220F03
:100A7000331F4A95E2F7622B20912D01422F50E05F
:100A800021E030E002C0220F331F4A95E2F7622BCB
:100A900020912E01422F50E021E030E002C0220FD1
:100AA000331F4A95E2F7262BFC01208315C680915F
:100AB00016019091170120912A01422F50E021E068
:100AC00030E002C0220F331F4A95E2F7622F2091D7
:100AD0002B01422F50E021E030E002C0220F331FF3
:100AE0004A95E2F7622B20912D01422F50E021E040
:100AF00030E002C0220F331F4A95E2F7622B2091AB
:100B00002E01422F50E021E030E002C0220F331FBF
:100B10004A95E2F7622B20912F01422F50E021E00D
:100B200030E002C0220F331F4A95E2F7262BFC016A
:100B30002083D2C5809116019091170120912B013D
:100B4000422F50E021E030E002C0220F331F4A95CF
:100B5000E2F7622F20912D01422F50E021E030E09A
:100B600002C0220F331F4A95E2F7622B20912E011B
:100B7000422F50E021E030E002C0220F331F4A959F
:100B8000E2F7622B20912F01422F50E021E030E06C
:100B900002C0220F331F4A95E2F7262BFC01208367
:100BA0009BC5809116019091170120912D01422F34
:100BB00050E021E030E002C0220F331F4A95E2F7F7
:100BC000622F20912E01422F50E021E030E002C040
:100BD000220F331F4A95E2F7262BFC0120837CC5A8
:100BE000809116019091170120912A01422F50E027
:100BF00021E030E002C0220F331F4A95E2F7622F56
:100C000020912B01422F50E021E030E002C0220F62
:100C1000331F4A95E2F7622B20912C01422F50E0BE
:100C200021E030E002C0220F331F4A95E2F7622B29
:100C300020912D01422F50E021E030E002C0220F30
:100C4000331F4A95E2F7262BFC01208345C580918E
:100C500016019091170120912C01422F50E021E0C4
:100C600030E002C0220F331F4A95E2F7622F209135
:100C70002D01422F50E021E030E002C0220F331F4F
:100C80004A95E2F7622B20912E01422F50E021E09D
:100C900030E002C0220F331F4A95E2F7262BFC01F9
:100CA00020831AC580911601909117012091290186
:100CB000422F50E021E030E002C0220F331F4A955E
:100CC000E2F7622F20912B01422F50E021E030E02B
:100CD00002C0220F331F4A95E2F7622B20912D01AB
:100CE000422F50E021E030E002C0220F331F4A952E
:100CF000E2F7622B20912F01422F50E021E030E0FB
:100D000002C0220F331F4A95E2F7262BFC012083F5
:100D1000E3C4809116019091170120912901422F7F
:100D200050E021E030E002C0220F331F4A95E2F785
:100D3000622F20912A01422F50E021E030E002C0D2
:100D4000220F331F4A95E2F7622B20912B01422F8D
:100D500050E021E030E002C0220F331F4A95E2F755
:100D6000622B20912D01422F50E021E030E002C0A3
:100D7000220F331F4A95E2F7622B20912E01422F5A
:100D800050E021E030E002C0220F331F4A95E2F725
:100D9000262BFC012083A0C480911601909117019D
:100DA00020912B01422F50E021E030E002C0220FC1
:100DB000331F4A95E2F7622F20912D01422F50E018
:100DC00021E030E002C0220F331F4A95E2F7622B88
:100DD00020912F01422F50E021E030E002C0220F8D
:100DE000331F4A95E2F7262BFC01208375C48091BE
:100DF00016019091170120912901422F50E021E026
:100E000030E002C0220F331F4A95E2F7622F209193
:100E10002A01422F50E021E030E002C0220F331FB0
:100E20004A95E2F7622B20912D01422F50E021E0FC
:100E300030E002C0220F331F4A95E2F7622B209167
:100E40002E01422F50E021E030E002C0220F331F7C
:100E50004A95E2F7622B20912F01422F50E021E0CA
:100E600030E002C0220F331F4A95E2F7262BFC0127
:100E7000208332C48091160190911701209129019D
:100E8000422F50E021E030E002C0220F331F4A958C
:100E9000E2F7622F20912D01422F50E021E030E057
:100EA00002C0220F331F4A95E2F7622B20912E01D8
:100EB000422F50E021E030E002C0220F331F4A955C
:100EC000E2F7262BFC01208307C480911601909144
:100ED000170120912D01422F50E021E030E002C0A7
:100EE000220F331F4A95E2F7622F20912F01422FE4
:100EF00050E021E030E002C0220F331F4A95E2F7B4
:100F0000262BFC012083E8C38091160190911701E4
:100F100020912C01422F50E021E030E002C0220F4E
:100F2000331F4A95E2F7622F20912D01422F50E0A6
:100F300021E030E002C0220F331F4A95E2F7622B16
:100F400020912E01422F50E021E030E002C0220F1C
:100F5000331F4A95E2F7622B20912F01422F50E078
:100F600021E030E002C0220F331F4A95E2F7262B22
:100F7000FC012083B1C3809116019091170120914B
:100F80002A01422F50E021E030E002C0220F331F3F
:100F90004A95E2F7622F20912B01422F50E021E089
:100FA00030E002C0220F331F4A95E2F7622B2091F6
:100FB0002C01422F50E021E030E002C0220F331F0D
:100FC0004A95E2F7622B20912D01422F50E021E05B
:100FD00030E002C0220F331F4A95E2F7622B2091C6
:100FE0002E01422F50E021E030E002C0220F331FDB
:100FF0004A95E2F7262BFC0120836EC380911601EF
:101000009091170120912B01422F50E021E030E018
:1010100002C0220F331F4A95E2F7622F20912C0164
:10102000422F50E021E030E002C0220F331F4A95EA
:10103000E2F7622B20912D01422F50E021E030E0B9
:1010400002C0220F331F4A95E2F7262BFC012083B2
:1010500043C3809116019091170120912A01422FDC
:1010600050E021E030E002C0220F331F4A95E2F742
:10107000622F20912C01422F50E021E030E002C08D
:10108000220F331F4A95E2F7622B20912E01422F47
:1010900050E021E030E002C0220F331F4A95E2F712
:1010A000262BFC01208318C3809116019091170113
:1010B00020912A01422F50E021E030E002C0220FAF
:1010C000331F4A95E2F7622F20912E01422F50E004
:1010D00021E030E002C0220F331F4A95E2F7622B75
:1010E00020912F01422F50E021E030E002C0220F7A
:1010F000331F4A95E2F7262BFC012083EDC2809135
:1011000016019091170120912901422F50E021E012
:1011100030E002C0220F331F4A95E2F7622F209180
:101120002C01422F50E021E030E002C0220F331F9B
:101130004A95E2F7622B20912F01422F50E021E0E7
:1011400030E002C0220F331F4A95E2F7262BFC0144
:101150002083C2C2809116019091170120912A012B
:10116000422F50E021E030E002C0220F331F4A95A9
:10117000E2F7622F20912B01422F50E021E030E076
:1011800002C0220F331F4A95E2F7622B20912C01F7
:10119000422F50E021E030E002C0220F331F4A9579
:1011A000E2F7622B20912E01422F50E021E030E047
:1011B00002C0220F331F4A95E2F7622B20912F01C4
:1011C000422F50E021E030E002C0220F331F4A9549
:1011D000E2F7262BFC0120837FC2809116019091BB
:1011E000170120912A01422F50E021E030E002C097
:1011F000220F331F4A95E2F7622F20912D01422FD3
:1012000050E021E030E002C0220F331F4A95E2F7A0
:10121000622B20912F01422F50E021E030E002C0EC
:10122000220F331F4A95E2F7262BFC01208354C27C
:10123000809116019091170120912901422F50E0D1
:1012400021E030E002C0220F331F4A95E2F7622FFF
:1012500020912A01422F50E021E030E002C0220F0D
:10126000331F4A95E2F7622B20912B01422F50E069
:1012700021E030E002C0220F331F4A95E2F7622BD3
:1012800020912D01422F50E021E030E002C0220FDA
:10129000331F4A95E2F7622B20912F01422F50E035
:1012A00021E030E002C0220F331F4A95E2F7262BDF
:1012B000FC01208311C280911601909117012091A9
:1012C0002D01422F50E021E030E002C0220F331FF9
:1012D0004A95E2F7622F20912E01422F50E021E043
:1012E00030E002C0220F331F4A95E2F7622B2091B3
:1012F0002F01422F50E021E030E002C0220F331FC7
:101300004A95E2F7262BFC012083E6C18091160165
:101310009091170120912A01422F50E021E030E006
:1013200002C0220F331F4A95E2F7622F20912B0152
:10133000422F50E021E030E002C0220F331F4A95D7
:10134000E2F7622B20912F01422F50E021E030E0A4
:1013500002C0220F331F4A95E2F7262BFC0120839F
:10136000BBC1809116019091170120912A01422F53
:1013700050E021E030E002C0220F331F4A95E2F72F
:10138000622F20912B01422F50E021E030E002C07B
:10139000220F331F4A95E2F7622B20912D01422F35
:1013A00050E021E030E002C0220F331F4A95E2F7FF
:1013B000622B20912E01422F50E021E030E002C04C
:1013C000220F331F4A95E2F7262BFC01208384C1AC
:1013D000809116019091170120912A01422F50E02F
:1013E00021E030E002C0220F331F4A95E2F7622F5E
:1013F00020912E01422F50E021E030E002C0220F68
:10140000331F4A95E2F7262BFC01208365C18091AA
:1014100016019091170120912B01422F50E021E0FD
:1014200030E002C0220F331F4A95E2F7622F20916D
:101430002D01422F50E021E030E002C0220F331F87
:101440004A95E2F7262BFC01208346C180911601C4
:101450009091170120912901422F50E021E030E0C6
:1014600002C0220F331F4A95E2F7622F20912C0110
:10147000422F50E021E030E002C0220F331F4A9596
:10148000E2F7262BFC01208327C180911601909161
:10149000170120912B01422F50E021E030E002C0E3
:1014A000220F331F4A95E2F7622F20912E01422F1F
:1014B00050E021E030E002C0220F331F4A95E2F7EE
:1014C000622B20912F01422F50E021E030E002C03A
:1014D000220F331F4A95E2F7262BFC012083FCC024
:1014E000809116019091170120912B01422F50E01D
:1014F00021E030E002C0220F331F4A95E2F7622F4D
:1015000020912E01422F50E021E030E002C0220F56
:10151000331F4A95E2F7262BFC012083DDC0809122
:1015200016019091170120912A01422F50E021E0ED
:1015300030E002C0220F331F4A95E2F7622F20915C
:101540002D01422F50E021E030E002C0220F331F76
:101550004A95E2F7262BFC012083BEC0809116013C
:101560009091170120912901422F50E021E030E0B5
:1015700002C0220F331F4A95E2F7622F20912E01FD
:10158000422F50E021E030E002C0220F331F4A9585
:10159000E2F7622B20912F01422F50E021E030E052
:1015A00002C0220F331F4A95E2F7262BFC0120834D
:1015B00093C0809116019091170120912C01422F28
:1015C00050E021E030E002C0220F331F4A95E2F7DD
:1015D000622F20912D01422F50E021E030E002C027
:1015E000220F331F4A95E2F7622B20912F01422FE1
:1015F00050E021E030E002C0220F331F4A95E2F7AD
:10160000262BFC01208368C0809116019091170160
:1016100020912B01422F50E021E030E002C0220F48
:10162000331F4A95E2F7622F20912C01422F50E0A0
:1016300021E030E002C0220F331F4A95E2F7622B0F
:1016400020912F01422F50E021E030E002C0220F14
:10165000331F4A95E2F7262BFC0120833DC0809181
:1016600016019091170120912901422F50E021E0AD
:1016700030E002C0220F331F4A95E2F7622F20911B
:101680002A01422F50E021E030E002C0220F331F38
:101690004A95E2F7622B20912F01422F50E021E082
:1016A00030E002C0220F331F4A95E2F7262BFC01DF
:1016B000208312C0809116019091170120912F0173
:1016C000422F50E021E030E002C0220F331F4A9544
:1016D000E2F7FC012083000000000F90DF91CF9122
:1016E0000895CF93DF9300D000D0CDB7DEB76983E4
:1016F0007A838B839C8389819A81AB81BC8180931F
:101700000E0190930F01A0931001B09311018091ED
:101710000E0190910F01A0911001B09111018093E1
:10172000330190933401A0933501B093360100004A
:101730000F900F900F900F90DF91CF910895CF935E
:10174000DF93CDB7DEB781E890E02BE0FC0120838A
:1017500088E890E02DE730E0FC01318320838FE6BC
:1017600090E022E0FC01208384E890E0FC011182FB
:10177000108280910E0190910F01A0911001B09103
:1017800011018093330190933401A0933501B093FC
:1017900036018FE590E02FE530E0F90120812068E7
:1017A000FC0120830000DF91CF910895CF93DF9358
:1017B000CDB7DEB781E890E0FC0110820000DF9138
:1017C000CF910895CF93DF93CDB7DEB781E08093BB
:1017D00032010000DF91CF9108951F920F92009087
:1017E0005F000F92112400905B000F922F933F93A4
:1017F0004F935F936F937F938F939F93AF93BF9319
:10180000EF93FF93CF93DF93CDB7DEB78091330192
:1018100090913401A0913501B09136010197A10951
:10182000B1098093330190933401A0933501B093B3
:1018300036018091330190913401A0913501B0912E
:101840003601892B8A2B8B2B91F40E94E20B80911D
:101850000E0190910F01A0911001B09111018093A0
:10186000330190933401A0933501B0933601000009
:10187000DF91CF91FF91EF91BF91AF919F918F91A8
:101880007F916F915F914F913F912F910F900092B7
:101890005B000F9000925F000F901F901895CF9300
:1018A000DF9300D0CDB7DEB79A83898389819A818F
:1018B0008130910551F082309105E1F0892BA9F535
:1018C00081E090E09A83898333C080913801882336
:1018D00061F080911501882341F082E090E09A83C5
:1018E000898381E08093370123C081E090E09A836F
:1018F00089831EC080913801882391F082E090E0B6
:101900009A83898380913701803121F481E080932B
:1019100037010EC080913701880F8093370108C0CE
:1019200081E090E09A83898303C01A8219820000C3
:1019300089819A81009759F099235CF003974CF4C0
:1019400082E290E020913701FC01208303C0000077
:1019500001C0000089819A810F900F90DF91CF9193
:101960000895CF93DF9300D01F92CDB7DEB79B834E
:101970008A8386E290E0FC0180818095807489836F
:101980008A819B818130910551F082309105F1F07F
:10199000892B49F581E090E09B838A8327C0898168
:1019A000882329F481E090E09B838A831FC082E032
:1019B00090E09B838A8380913801882321F481E021
:1019C0008093380113C01092380110C08981882398
:1019D00029F481E090E09B838A8308C082E090E054
:1019E0009B838A8303C01B821A82000000008A81C5
:1019F0009B810F900F900F90DF91CF910895CF931F
:101A0000DF9300D01F92CDB7DEB79B838A8386E237
:101A100090E0FC0180818095807A89838A819B8116
:101A20008230910509F46CC0833091052CF4009745
:101A300079F0019709F1A0C08430910509F47AC0CA
:101A4000843091050CF469C0059709F484C094C0F2
:101A500081E090E09B838A8382E08093120181E0A1
:101A6000809313011092150190911201809113013E
:101A7000890F8093140184C0809138018823C1F4B8
:101A800089818038A9F490911301809114019817ED
:101A900078F482E090E09B838A83809113018F5FCA
:101AA000809313018091120181508093120127C00D
:101AB000809138018823B1F48981803299F4809132
:101AC0001301823078F083E090E09B838A838091D9
:101AD0001301815080931301809112018F5F8093D5
:101AE00012010DC080913801882309F448C081E0BB
:101AF0008093150184E090E09B838A8340C03FC0BF
:101B00008981803829F482E090E09B838A8338C001
:101B100081E090E09B838A8333C08981803229F4FD
:101B200083E090E09B838A832BC081E090E09B83DD
:101B30008A8326C080913801882341F485E090E0B3
:101B40009B838A8381E0809339011AC084E090E00E
:101B50009B838A8315C081E090E09B838A8381E028
:101B6000809313019091120180911301F92FF81BBA
:101B70008F2F8093120104C01B821A8201C00000C3
:101B80008A819B818130910531F0823091056CF41E
:101B9000892B69F00AC01092150190911201809171
:101BA0001301890F8093140103C0000001C00000DD
:101BB0008A819B810F900F900F90DF91CF910895B4
:101BC000CF93DF9300D0CDB7DEB79A838983898125
:101BD0009A818130910551F082309105A9F0892BCD
:101BE000D1F481E090E09A83898318C08091390113
:101BF000882329F481E090E09A8389830FC082E0F2
:101C000090E09A8389830AC081E090E09A83898377
:101C10001092390103C01A821982000089819A81C9
:101C20009923D4F082309105CCF0029709F014C0CA
:101C300080913701843031F480911301880F8093B3
:101C4000130102C0109213019091120180911301AF
:101C5000890F8093120103C0000001C00000898138
:101C60009A810F900F90DF91CF910895CF93DF93DA
:101C700000D0CDB7DEB79A838983809112010E948C
:101C8000C30089819A810F900F90DF91CF910895C1
:101C9000CF93DF9300D000D0CDB7DEB79C838B838A
:101CA0008FE089838FEF8A8380911301863038F02B
:101CB00081E080933B0184E080933C0107C0109257
:101CC0003B0180911301815080933C0180913C0144
:101CD000882F90E0885E9E4FFC01808180933D01BB
:101CE00088E290E020913D012095FC0120838091C5
:101CF0003B01882F90E09E012F5F3F4F820F931F83
:101D0000FC01808180933E018BE290E020913E01B6
:101D1000FC01208380E090E00F900F900F900F90D7
:101D2000DF91CF9108950F931F93CF93DF93CDB79A
:101D3000DEB761970FB6F894DEBF0FBECDBF81E26C
:101D400090E02FE1FC01208382E290E020EEFC0194
:101D5000208384E290E02FEFFC01208385E290E075
:101D6000FC01108287E290E02FE1FC01208388E2F1
:101D700090E020EEFC0120838AE290E02FEFFC014E
:101D800020838BE290E0FC0110828CE0EDE1F1E039
:101D9000DE01169601900D928A95E1F786E090E0BB
:101DA0009C838B838FEF8D838D8180933F0182E3B2
:101DB00090E0A0E0B0E08093400190934101A093B7
:101DC0004201B09343018091400190914101A09163
:101DD0004201B09143018093440190934501A09347
:101DE0004601B093470181EB9CE0909349018093B9
:101DF00048018D8180934A0186E990E0A0E0B0E03F
:101E000080934B0190934C01A0934D01B0934E01F0
:101E100080914B0190914C01A0914D01B0914E01E8
:101E200080934F0190935001A0935101B0935201C0
:101E30008FE49CE090935401809353018D818093B3
:101E4000550182E390E0A0E0B0E0809356019093CA
:101E50005701A0935801B093590180915601909178
:101E60005701A0915801B091590180935A01909364
:101E70005B01A0935C01B0935D0186E39EE09093CB
:101E80005F0180935E018D818093600182E390E029
:101E9000A0E0B0E08093610190936201A0936301A0
:101EA000B09364018091610190916201A0916301FE
:101EB000B09164018093650190936601A0936701DE
:101EC000B093680188E49EE090936A018093690171
:101ED0008D8180936B0182E390E0A0E0B0E080937D
:101EE0006C0190936D01A0936E01B0936F0180918E
:101EF0006C0190916D01A0916E01B0916F01809382
:101F0000700190937101A0937201B09373018FEFF0
:101F10009CE090937501809374018D81809376018C
:101F200082E390E0A0E0B0E08093770190937801A5
:101F3000A0937901B0937A01809177019091780113
:101F4000A0917901B0917A0180937B0190937C01FB
:101F5000A0937D01B0937E0180EE9DE0909380017F
:101F600080937F0162E370E080E090E00E94710B5B
:101F70000E949F0B1A8219829BC089819A81880FC7
:101F8000991F9E012F5F3F4F820F931F0596FC0103
:101F900080819181FC01258136814781508589812D
:101FA0009A81880F991FBE016F5F7F4F860F971F21
:101FB0000596FC0180819181FC0181819281A38140
:101FC000B481281739074A075B0709F045C08981A2
:101FD0009A81880F991F9E012F5F3F4F820F931F99
:101FE0000596FC010081118189819A81880F991FD2
:101FF0009E012F5F3F4F820F931F0596FC0180814A
:102000009181FC012185328589819A81880F991FF0
:10201000AE014F5F5F4F840F951F0596FC018081D5
:102020009181FC018081082E000C990BF901099522
:10203000F801808389819A81880F991F9E012F5F03
:102040003F4F820F931F0596FC0180819181FC0117
:10205000158216821782108689819A81880F991FAE
:102060009E012F5F3F4F820F931F0596FC01208139
:10207000318189819A81880F991FAE014F5F5F4F2F
:10208000840F951F0596FC0180819181FC0185815B
:102090009681A781B085C296A11DB11DF9018583E6
:1020A0009683A783B08789819A8101969A838983D1
:1020B00029813A818B819C812817390708F45DCFEB
:1020C0000000809132018823E1F31092320152CF57
:1020D000EE0FFF1F0024001C0BBE0790F691E02DB1
:0620E0000994F894FFCF03
:1020E60000000002000000009A000000000001004D
:1020F60000000201030125000103070F1F3F014AEB
:1021060001550160016B0176010706040201030017
:022116000500C2
:00000001FF
