:100000000C9480000C949F000C949F000C949F0013
:100010000C949F000C949F000C949F000C949F00E4
:100020000C949F000C949F000C949F000C949F00D4
:100030000C949F000C94F40B0C949F000C949F0064
:100040000C949F000C949F000C949F000C949F00B4
:100050000C949F000C949F000C949F000C949F00A4
:100060000C949F000C949F000C949F000C949F0094
:100070000C949F000C949F000C949F000C949F0084
:100080000C949F000C949F000C949F00E700370194
:1000900057019B01DF0117025B02AB02D70233035A
:1000A0008303D20315044C048F04D20409051B05F5
:1000B0005E05A105D805F7052E0659069006D3065C
:1000C000FE0641076C078B07C207050830085B086E
:1000D0008608B108F4081F0962098D09B809EF09FB
:1000E0000E0A2D0A4C0A770A960AB50AE00A0B0B8B
:1000F000360B310D450DAB0DB80DC50DD60D9E0D52
:1001000011241FBECFEFD0E4DEBFCDBF11E0A0E0D1
:10011000B1E0ECE3F1E200E00BBF02C007900D920A
:10012000A433B107D9F721E0A4E3B1E001C01D92E7
:10013000A839B207E1F70E94BE0E0C949C100C94F3
:100140000000CF93DF9300D01F92CDB7DEB7898335
:100150007B836A8389818A3031F48A819B81BC01E7
:100160008DE00E94A10080EC90E0FC018081882F4E
:1001700090E080729927892BB1F386EC90E0298179
:10018000FC01208380E090E00F900F900F90DF91B2
:10019000CF910895CF93DF931F92CDB7DEB78983B8
:1001A0008981882F90E0092E000CAA0BBB0B40E040
:1001B00050E022E330E0841B950B2817390710F438
:1001C0000C94610B8A5B9F4FFC010C9493108091FF
:1001D00016019091170120912B01422F50E021E050
:1001E00030E002C0220F331F4A95E2F7622F2091C0
:1001F0002C01422F50E021E030E002C0220F331FDB
:100200004A95E2F7622B20912D01422F50E021E028
:1002100030E002C0220F331F4A95E2F7622B209193
:100220002E01422F50E021E030E002C0220F331FA8
:100230004A95E2F7622B20912F01422F50E021E0F6
:1002400030E002C0220F331F4A95E2F7622B209163
:100250003001422F50E021E030E002C0220F331F76
:100260004A95E2F7262BFC0120830C94730B8091B6
:1002700016019091170120912C01422F50E021E0AE
:1002800030E002C0220F331F4A95E2F7622F20911F
:100290002D01422F50E021E030E002C0220F331F39
:1002A0004A95E2F7262BFC0120830C94730B809176
:1002B00016019091170120912B01422F50E021E06F
:1002C00030E002C0220F331F4A95E2F7622F2091DF
:1002D0002C01422F50E021E030E002C0220F331FFA
:1002E0004A95E2F7622B20912E01422F50E021E047
:1002F00030E002C0220F331F4A95E2F7622B2091B3
:100300002F01422F50E021E030E002C0220F331FC6
:100310004A95E2F7622B20913101422F50E021E013
:1003200030E002C0220F331F4A95E2F7262BFC0172
:1003300020830C94730B80911601909117012091EA
:100340002B01422F50E021E030E002C0220F331F8A
:100350004A95E2F7622F20912C01422F50E021E0D4
:1003600030E002C0220F331F4A95E2F7622B209142
:100370002D01422F50E021E030E002C0220F331F58
:100380004A95E2F7622B20912E01422F50E021E0A6
:1003900030E002C0220F331F4A95E2F7622B209112
:1003A0003101422F50E021E030E002C0220F331F24
:1003B0004A95E2F7262BFC0120830C94730B809165
:1003C00016019091170120912C01422F50E021E05D
:1003D00030E002C0220F331F4A95E2F7622F2091CE
:1003E0002D01422F50E021E030E002C0220F331FE8
:1003F0004A95E2F7622B20913001422F50E021E034
:1004000030E002C0220F331F4A95E2F7622B2091A1
:100410003101422F50E021E030E002C0220F331FB3
:100420004A95E2F7262BFC0120830C94730B8091F4
:1004300016019091170120912B01422F50E021E0ED
:1004400030E002C0220F331F4A95E2F7622F20915D
:100450002D01422F50E021E030E002C0220F331F77
:100460004A95E2F7622B20912E01422F50E021E0C5
:1004700030E002C0220F331F4A95E2F7622B209131
:100480003001422F50E021E030E002C0220F331F44
:100490004A95E2F7622B20913101422F50E021E092
:1004A00030E002C0220F331F4A95E2F7262BFC01F1
:1004B00020830C94730B8091160190911701209169
:1004C0002B01422F50E021E030E002C0220F331F09
:1004D0004A95E2F7622F20912D01422F50E021E052
:1004E00030E002C0220F331F4A95E2F7622B2091C1
:1004F0002E01422F50E021E030E002C0220F331FD6
:100500004A95E2F7622B20912F01422F50E021E023
:1005100030E002C0220F331F4A95E2F7622B209190
:100520003001422F50E021E030E002C0220F331FA3
:100530004A95E2F7622B20913101422F50E021E0F1
:1005400030E002C0220F331F4A95E2F7262BFC0150
:1005500020830C94730B80911601909117012091C8
:100560002B01422F50E021E030E002C0220F331F68
:100570004A95E2F7622F20912C01422F50E021E0B2
:1005800030E002C0220F331F4A95E2F7622B209120
:100590002D01422F50E021E030E002C0220F331F36
:1005A0004A95E2F7262BFC0120830C94730B809173
:1005B00016019091170120912B01422F50E021E06C
:1005C00030E002C0220F331F4A95E2F7622F2091DC
:1005D0002C01422F50E021E030E002C0220F331FF7
:1005E0004A95E2F7622B20912D01422F50E021E045
:1005F00030E002C0220F331F4A95E2F7622B2091B0
:100600002E01422F50E021E030E002C0220F331FC4
:100610004A95E2F7622B20912F01422F50E021E012
:1006200030E002C0220F331F4A95E2F7622B20917F
:100630003001422F50E021E030E002C0220F331F92
:100640004A95E2F7622B20913101422F50E021E0E0
:1006500030E002C0220F331F4A95E2F7262BFC013F
:1006600020830C94730B80911601909117012091B7
:100670002B01422F50E021E030E002C0220F331F57
:100680004A95E2F7622F20912C01422F50E021E0A1
:1006900030E002C0220F331F4A95E2F7622B20910F
:1006A0002D01422F50E021E030E002C0220F331F25
:1006B0004A95E2F7622B20912E01422F50E021E073
:1006C00030E002C0220F331F4A95E2F7622B2091DF
:1006D0003001422F50E021E030E002C0220F331FF2
:1006E0004A95E2F7622B20913101422F50E021E040
:1006F00030E002C0220F331F4A95E2F7262BFC019F
:1007000020830C94730B8091160190911701209116
:100710002B01422F50E021E030E002C0220F331FB6
:100720004A95E2F7622F20912C01422F50E021E000
:1007300030E002C0220F331F4A95E2F7622B20916E
:100740002D01422F50E021E030E002C0220F331F84
:100750004A95E2F7622B20912F01422F50E021E0D1
:1007600030E002C0220F331F4A95E2F7622B20913E
:100770003001422F50E021E030E002C0220F331F51
:100780004A95E2F7622B20913101422F50E021E09F
:1007900030E002C0220F331F4A95E2F7262BFC01FE
:1007A0002083A1C7809116019091170120912D01FE
:1007B000422F50E021E030E002C0220F331F4A9563
:1007C000E2F7622F20912E01422F50E021E030E02D
:1007D00002C0220F331F4A95E2F7622B20912F01AE
:1007E000422F50E021E030E002C0220F331F4A9533
:1007F000E2F7622B20913001422F50E021E030E0FF
:1008000002C0220F331F4A95E2F7622B209131017B
:10081000422F50E021E030E002C0220F331F4A9502
:10082000E2F7262BFC0120835EC780911601909190
:10083000170120912B01422F50E021E030E002C04F
:10084000220F331F4A95E2F7622F20912E01422F8B
:1008500050E021E030E002C0220F331F4A95E2F75A
:10086000622B20912F01422F50E021E030E002C0A6
:10087000220F331F4A95E2F7622B20913001422F5D
:1008800050E021E030E002C0220F331F4A95E2F72A
:10089000262BFC01208327C7809116019091170118
:1008A00020912C01422F50E021E030E002C0220FC5
:1008B000331F4A95E2F7622F20912D01422F50E01D
:1008C00021E030E002C0220F331F4A95E2F7622B8D
:1008D00020912E01422F50E021E030E002C0220F93
:1008E000331F4A95E2F7622B20912F01422F50E0EF
:1008F00021E030E002C0220F331F4A95E2F7622B5D
:1009000020913101422F50E021E030E002C0220F5F
:10091000331F4A95E2F7262BFC012083E4C6809121
:1009200016019091170120912B01422F50E021E0F8
:1009300030E002C0220F331F4A95E2F7622F209168
:100940002E01422F50E021E030E002C0220F331F81
:100950004A95E2F7622B20912F01422F50E021E0CF
:1009600030E002C0220F331F4A95E2F7622B20913C
:100970003001422F50E021E030E002C0220F331F4F
:100980004A95E2F7622B20913101422F50E021E09D
:1009900030E002C0220F331F4A95E2F7262BFC01FC
:1009A0002083A1C6809116019091170120912B01FF
:1009B000422F50E021E030E002C0220F331F4A9561
:1009C000E2F7622F20912F01422F50E021E030E02A
:1009D00002C0220F331F4A95E2F7622B20913001AB
:1009E000422F50E021E030E002C0220F331F4A9531
:1009F000E2F7622B20913101422F50E021E030E0FC
:100A000002C0220F331F4A95E2F7262BFC012083F8
:100A10006AC6809116019091170120913201422FF0
:100A200050E021E030E002C0220F331F4A95E2F788
:100A3000FC01208358C680911601909117012091E6
:100A40002B01422F50E021E030E002C0220F331F83
:100A50004A95E2F7622F20912D01422F50E021E0CC
:100A600030E002C0220F331F4A95E2F7622B20913B
:100A70002E01422F50E021E030E002C0220F331F50
:100A80004A95E2F7622B20912F01422F50E021E09E
:100A900030E002C0220F331F4A95E2F7622B20910B
:100AA0003001422F50E021E030E002C0220F331F1E
:100AB0004A95E2F7262BFC01208315C6809116018A
:100AC0009091170120912C01422F50E021E030E05D
:100AD00002C0220F331F4A95E2F7622F20912D01A9
:100AE000422F50E021E030E002C0220F331F4A9530
:100AF000E2F7622B20912F01422F50E021E030E0FD
:100B000002C0220F331F4A95E2F7622B2091300179
:100B1000422F50E021E030E002C0220F331F4A95FF
:100B2000E2F7622B20913101422F50E021E030E0CA
:100B300002C0220F331F4A95E2F7262BFC012083C7
:100B4000D2C5809116019091170120912D01422F5D
:100B500050E021E030E002C0220F331F4A95E2F757
:100B6000622F20912F01422F50E021E030E002C09F
:100B7000220F331F4A95E2F7622B20913001422F5A
:100B800050E021E030E002C0220F331F4A95E2F727
:100B9000622B20913101422F50E021E030E002C071
:100BA000220F331F4A95E2F7262BFC0120839BC5B9
:100BB000809116019091170120912F01422F50E052
:100BC00021E030E002C0220F331F4A95E2F7622F86
:100BD00020913001422F50E021E030E002C0220F8E
:100BE000331F4A95E2F7262BFC0120837CC58091B8
:100BF00016019091170120912C01422F50E021E025
:100C000030E002C0220F331F4A95E2F7622F209195
:100C10002D01422F50E021E030E002C0220F331FAF
:100C20004A95E2F7622B20912E01422F50E021E0FD
:100C300030E002C0220F331F4A95E2F7622B209169
:100C40002F01422F50E021E030E002C0220F331F7D
:100C50004A95E2F7262BFC01208345C580911601B9
:100C60009091170120912E01422F50E021E030E0B9
:100C700002C0220F331F4A95E2F7622F20912F0105
:100C8000422F50E021E030E002C0220F331F4A958E
:100C9000E2F7622B20913001422F50E021E030E05A
:100CA00002C0220F331F4A95E2F7262BFC01208356
:100CB0001AC5809116019091170120912B01422FA6
:100CC00050E021E030E002C0220F331F4A95E2F7E6
:100CD000622F20912D01422F50E021E030E002C030
:100CE000220F331F4A95E2F7622B20912F01422FEA
:100CF00050E021E030E002C0220F331F4A95E2F7B6
:100D0000622B20913101422F50E021E030E002C0FF
:100D1000220F331F4A95E2F7262BFC012083E3C400
:100D2000809116019091170120912B01422F50E0E4
:100D300021E030E002C0220F331F4A95E2F7622F14
:100D400020912C01422F50E021E030E002C0220F20
:100D5000331F4A95E2F7622B20912D01422F50E07C
:100D600021E030E002C0220F331F4A95E2F7622BE8
:100D700020912F01422F50E021E030E002C0220FED
:100D8000331F4A95E2F7622B20913001422F50E049
:100D900021E030E002C0220F331F4A95E2F7262BF4
:100DA000FC012083A0C4809116019091170120912D
:100DB0002D01422F50E021E030E002C0220F331F0E
:100DC0004A95E2F7622F20912F01422F50E021E057
:100DD00030E002C0220F331F4A95E2F7622B2091C8
:100DE0003101422F50E021E030E002C0220F331FDA
:100DF0004A95E2F7262BFC01208375C480911601E9
:100E00009091170120912B01422F50E021E030E01A
:100E100002C0220F331F4A95E2F7622F20912C0166
:100E2000422F50E021E030E002C0220F331F4A95EC
:100E3000E2F7622B20912F01422F50E021E030E0B9
:100E400002C0220F331F4A95E2F7622B2091300136
:100E5000422F50E021E030E002C0220F331F4A95BC
:100E6000E2F7622B20913101422F50E021E030E087
:100E700002C0220F331F4A95E2F7262BFC01208384
:100E800032C4809116019091170120912B01422FBD
:100E900050E021E030E002C0220F331F4A95E2F714
:100EA000622F20912F01422F50E021E030E002C05C
:100EB000220F331F4A95E2F7622B20913001422F17
:100EC00050E021E030E002C0220F331F4A95E2F7E4
:100ED000262BFC01208307C48091160190911701F5
:100EE00020912F01422F50E021E030E002C0220F7C
:100EF000331F4A95E2F7622F20913101422F50E0D3
:100F000021E030E002C0220F331F4A95E2F7262B82
:100F1000FC012083E8C38091160190911701209174
:100F20002E01422F50E021E030E002C0220F331F9B
:100F30004A95E2F7622F20912F01422F50E021E0E5
:100F400030E002C0220F331F4A95E2F7622B209156
:100F50003001422F50E021E030E002C0220F331F69
:100F60004A95E2F7622B20913101422F50E021E0B7
:100F700030E002C0220F331F4A95E2F7262BFC0116
:100F80002083B1C3809116019091170120912C010B
:100F9000422F50E021E030E002C0220F331F4A957B
:100FA000E2F7622F20912D01422F50E021E030E046
:100FB00002C0220F331F4A95E2F7622B20912E01C7
:100FC000422F50E021E030E002C0220F331F4A954B
:100FD000E2F7622B20912F01422F50E021E030E018
:100FE00002C0220F331F4A95E2F7622B2091300195
:100FF000422F50E021E030E002C0220F331F4A951B
:10100000E2F7262BFC0120836EC38091160190919C
:10101000170120912D01422F50E021E030E002C065
:10102000220F331F4A95E2F7622F20912E01422FA3
:1010300050E021E030E002C0220F331F4A95E2F772
:10104000622B20912F01422F50E021E030E002C0BE
:10105000220F331F4A95E2F7262BFC01208343C35E
:10106000809116019091170120912C01422F50E0A0
:1010700021E030E002C0220F331F4A95E2F7622FD1
:1010800020912E01422F50E021E030E002C0220FDB
:10109000331F4A95E2F7622B20913001422F50E036
:1010A00021E030E002C0220F331F4A95E2F7262BE1
:1010B000FC01208318C380911601909117012091A3
:1010C0002C01422F50E021E030E002C0220F331FFC
:1010D0004A95E2F7622F20913001422F50E021E043
:1010E00030E002C0220F331F4A95E2F7622B2091B5
:1010F0003101422F50E021E030E002C0220F331FC7
:101100004A95E2F7262BFC012083EDC2809116015F
:101110009091170120912B01422F50E021E030E007
:1011200002C0220F331F4A95E2F7622F20912E0151
:10113000422F50E021E030E002C0220F331F4A95D9
:10114000E2F7622B20913101422F50E021E030E0A4
:1011500002C0220F331F4A95E2F7262BFC012083A1
:10116000C2C2809116019091170120912C01422F4B
:1011700050E021E030E002C0220F331F4A95E2F731
:10118000622F20912D01422F50E021E030E002C07B
:10119000220F331F4A95E2F7622B20912E01422F36
:1011A00050E021E030E002C0220F331F4A95E2F701
:1011B000622B20913001422F50E021E030E002C04C
:1011C000220F331F4A95E2F7622B20913101422F03
:1011D00050E021E030E002C0220F331F4A95E2F7D1
:1011E000262BFC0120837FC280911601909117016C
:1011F00020912C01422F50E021E030E002C0220F6C
:10120000331F4A95E2F7622F20912F01422F50E0C1
:1012100021E030E002C0220F331F4A95E2F7622B33
:1012200020913101422F50E021E030E002C0220F36
:10123000331F4A95E2F7262BFC01208354C280918C
:1012400016019091170120912B01422F50E021E0CF
:1012500030E002C0220F331F4A95E2F7622F20913F
:101260002C01422F50E021E030E002C0220F331F5A
:101270004A95E2F7622B20912D01422F50E021E0A8
:1012800030E002C0220F331F4A95E2F7622B209113
:101290002F01422F50E021E030E002C0220F331F27
:1012A0004A95E2F7622B20913101422F50E021E074
:1012B00030E002C0220F331F4A95E2F7262BFC01D3
:1012C000208311C2809116019091170120912F0166
:1012D000422F50E021E030E002C0220F331F4A9538
:1012E000E2F7622F20913001422F50E021E030E000
:1012F00002C0220F331F4A95E2F7622B2091310181
:10130000422F50E021E030E002C0220F331F4A9507
:10131000E2F7262BFC012083E6C180911601909113
:10132000170120912C01422F50E021E030E002C053
:10133000220F331F4A95E2F7622F20912D01422F91
:1013400050E021E030E002C0220F331F4A95E2F75F
:10135000622B20913101422F50E021E030E002C0A9
:10136000220F331F4A95E2F7262BFC012083BBC1D5
:10137000809116019091170120912C01422F50E08D
:1013800021E030E002C0220F331F4A95E2F7622FBE
:1013900020912D01422F50E021E030E002C0220FC9
:1013A000331F4A95E2F7622B20912F01422F50E024
:1013B00021E030E002C0220F331F4A95E2F7622B92
:1013C00020913001422F50E021E030E002C0220F96
:1013D000331F4A95E2F7262BFC01208384C18091BC
:1013E00016019091170120912C01422F50E021E02D
:1013F00030E002C0220F331F4A95E2F7622F20919E
:101400003001422F50E021E030E002C0220F331FB4
:101410004A95E2F7262BFC01208365C180911601D5
:101420009091170120912D01422F50E021E030E0F2
:1014300002C0220F331F4A95E2F7622F20912F013D
:10144000422F50E021E030E002C0220F331F4A95C6
:10145000E2F7262BFC01208346C180911601909172
:10146000170120912B01422F50E021E030E002C013
:10147000220F331F4A95E2F7622F20912E01422F4F
:1014800050E021E030E002C0220F331F4A95E2F71E
:10149000262BFC01208327C1809116019091170112
:1014A00020912D01422F50E021E030E002C0220FB8
:1014B000331F4A95E2F7622F20913001422F50E00E
:1014C00021E030E002C0220F331F4A95E2F7622B81
:1014D00020913101422F50E021E030E002C0220F84
:1014E000331F4A95E2F7262BFC012083FCC0809134
:1014F00016019091170120912D01422F50E021E01B
:1015000030E002C0220F331F4A95E2F7622F20918C
:101510003001422F50E021E030E002C0220F331FA3
:101520004A95E2F7262BFC012083DDC0809116014D
:101530009091170120912C01422F50E021E030E0E2
:1015400002C0220F331F4A95E2F7622F20912F012C
:10155000422F50E021E030E002C0220F331F4A95B5
:10156000E2F7262BFC012083BEC0809116019091EA
:10157000170120912B01422F50E021E030E002C002
:10158000220F331F4A95E2F7622F20913001422F3C
:1015900050E021E030E002C0220F331F4A95E2F70D
:1015A000622B20913101422F50E021E030E002C057
:1015B000220F331F4A95E2F7262BFC01208393C0AC
:1015C000809116019091170120912E01422F50E039
:1015D00021E030E002C0220F331F4A95E2F7622F6C
:1015E00020912F01422F50E021E030E002C0220F75
:1015F000331F4A95E2F7622B20913101422F50E0D0
:1016000021E030E002C0220F331F4A95E2F7262B7B
:10161000FC01208368C080911601909117012091F0
:101620002D01422F50E021E030E002C0220F331F95
:101630004A95E2F7622F20912E01422F50E021E0DF
:1016400030E002C0220F331F4A95E2F7622B20914F
:101650003101422F50E021E030E002C0220F331F61
:101660004A95E2F7262BFC0120833DC080911601AC
:101670009091170120912B01422F50E021E030E0A2
:1016800002C0220F331F4A95E2F7622F20912C01EE
:10169000422F50E021E030E002C0220F331F4A9574
:1016A000E2F7622B20913101422F50E021E030E03F
:1016B00002C0220F331F4A95E2F7262BFC0120833C
:1016C00012C0809116019091170120913101422F93
:1016D00050E021E030E002C0220F331F4A95E2F7CC
:1016E000FC012083000000000F90DF91CF9108954E
:1016F000CF93DF9300D000D0CDB7DEB769837A8374
:101700008B839C8389819A81AB81BC8180930E01FC
:1017100090930F01A0931001B093110180910E01DD
:1017200090910F01A0911001B091110180933501AA
:1017300090933601A0933701B093380100000F90C9
:101740000F900F900F90DF91CF910895CF93DF937B
:10175000CDB7DEB781E890E02BE0FC01208388E87C
:1017600090E02DE730E0FC01318320838FE690E0AC
:1017700022E0FC01208384E890E0FC0111821082C9
:1017800080910E0190910F01A0911001B091110173
:101790008093350190933601A0933701B0933801BF
:1017A0008FE590E02FE530E0F90120812068FC0111
:1017B00020830000DF91CF910895CF93DF93CDB7C1
:1017C000DEB781E890E0FC0110820000DF91CF914C
:1017D0000895CF93DF93CDB7DEB781E080933401D6
:1017E0000000DF91CF9108951F920F9200905F004B
:1017F0000F92112400905B000F922F933F934F9311
:101800005F936F937F938F939F93AF93BF93EF9368
:10181000FF93CF93DF93CDB7DEB7809135019091E1
:101820003601A0913701B09138010197A109B109A2
:101830008093350190933601A0933701B09338011E
:101840008091350190913601A0913701B091380116
:10185000892B8A2B8B2B91F40E94E90B80910E012E
:1018600090910F01A0911001B09111018093350169
:1018700090933601A0933701B09338010000DF91B7
:10188000CF91FF91EF91BF91AF919F918F917F91F8
:101890006F915F914F913F912F910F9000925B005C
:1018A0000F9000925F000F901F901895CF93DF93D9
:1018B00000D0CDB7DEB79A83898389819A81813040
:1018C000910551F082309105E1F0892BA9F581E075
:1018D00090E09A83898333C080913A01882361F034
:1018E00080911501882341F082E090E09A838983FA
:1018F00081E08093390123C081E090E09A8389835D
:101900001EC080913A01882391F082E090E09A8392
:10191000898380913901803121F481E080933901FC
:101920000EC080913901880F8093390108C081E091
:1019300090E09A83898303C01A821982000089810A
:101940009A81009759F099235CF003974CF482E256
:1019500090E020913901FC01208303C0000001C008
:10196000000089819A810F900F90DF91CF910895A7
:10197000CF93DF9300D01F92CDB7DEB79B838A83CE
:1019800086E290E0FC0180818095807489838A8161
:101990009B818130910551F082309105F1F0892BC6
:1019A00049F581E090E09B838A8327C08981882361
:1019B00029F481E090E09B838A831FC082E090E05D
:1019C0009B838A8380913A01882321F481E080936C
:1019D0003A0113C010923A0110C08981882329F47A
:1019E00081E090E09B838A8308C082E090E09B8343
:1019F0008A8303C01B821A82000000008A819B81B7
:101A00000F900F900F90DF91CF910895CF93DF93B8
:101A100000D000D0CDB7DEB79C838B8386E290E008
:101A2000FC0180818095807A898380E290E0FC01CE
:101A30008081809580728A838B819C81092E000C25
:101A4000AA0BBB0B40E050E026E030E0841B950B76
:101A50002817390708F4BBC087589F4FFC010C9426
:101A6000931081E090E09C838B8382E0809312014D
:101A700081E08093130110921501909112018091E1
:101A80001301890F80931401A5C08A818823E1F492
:101A900080913A018823C1F489818038A9F490911A
:101AA000130180911401981778F482E090E09C83F0
:101AB0008B83809113018F5F8093130180911201BA
:101AC00081508093120139C08A818823D1F480919A
:101AD0003A018823B1F48981803299F4809113010D
:101AE000823078F083E090E09C838B8380911301B7
:101AF000815080931301809112018F5F80931201B6
:101B00001CC08A81882361F480913A01882341F0C6
:101B100081E08093150184E090E09C838B830DC06D
:101B20008A81882329F086E090E09C838B8352C0D1
:101B300081E090E09C838B834DC04CC08A818823D8
:101B400029F086E090E09C838B8344C081E090E0A4
:101B50009C838B833FC08981803829F482E090E0A8
:101B60009C838B8337C081E090E09C838B8332C061
:101B70008981803229F483E090E09C838B832AC0A2
:101B800081E090E09C838B8325C080913A0188237B
:101B900041F485E090E09C838B8381E080933B015E
:101BA00019C084E090E09C838B8314C081E090E0B6
:101BB0009C838B8381E0809313019091120180912B
:101BC0001301F92FF81B8F2F8093120103C01C8281
:101BD0001B8200008B819C818130910531F0823025
:101BE00091056CF4892B69F00AC01092150190914F
:101BF000120180911301890F8093140103C000002A
:101C000001C000008B819C810F900F900F900F906E
:101C1000DF91CF910895CF93DF9300D0CDB7DEB79A
:101C20009A83898389819A818130910551F082302C
:101C30009105A9F0892BD1F481E090E09A83898302
:101C400018C080913B01882329F481E090E09A83B9
:101C500089830FC082E090E09A8389830AC081E083
:101C600090E09A83898310923B0103C01A82198203
:101C7000000089819A819923D4F082309105CCF0BB
:101C8000029709F014C080913901843031F48091B9
:101C90001301880F8093130102C0109213019091D9
:101CA000120180911301890F8093120103C000007B
:101CB00001C0000089819A810F900F90DF91CF9130
:101CC0000895CF93DF9300D0CDB7DEB79A83898391
:101CD000809112010E94CA0089819A810F900F9011
:101CE000DF91CF910895CF93DF9300D000D0CDB78F
:101CF000DEB79C838B838FE089838FEF8A8380910B
:101D00001301863038F081E080933D0184E08093B8
:101D10003E0107C010923D018091130181508093D4
:101D20003E0180913E01882F90E0885E9E4FFC012D
:101D3000808180933F0188E290E020913F012095CF
:101D4000FC01208380913D01882F90E09E012F5F50
:101D50003F4F820F931FFC018081809340018BE2F3
:101D600090E020914001FC01208380E090E00F9002
:101D70000F900F900F90DF91CF9108950F931F93C5
:101D8000CF93DF93CDB7DEB763970FB6F894DEBF7E
:101D90000FBECDBF81E290E02FE1FC01208382E203
:101DA00090E020EEFC01208384E290E02FEFFC0124
:101DB000208385E290E0FC01108287E290E02FE131
:101DC000FC01208388E290E020EEFC0120838AE27F
:101DD00090E02FEFFC0120838BE290E0FC01108269
:101DE0008EE0EDE1F1E0DE01169601900D928A950C
:101DF000E1F787E090E09C838B838FEF8D838D816B
:101E00008093410182E390E0A0E0B0E08093420142
:101E100090934301A0934401B09345018091420106
:101E200090914301A0914401B091450180934601F6
:101E300090934701A0934801B093490188EB9CE03F
:101E400090934B0180934A018D8180934C0186E9E8
:101E500090E0A0E0B0E080934D0190934E01A093FC
:101E60004F01B093500180914D0190914E01A0918E
:101E70004F01B09150018093510190935201A09372
:101E80005301B093540186E59CE0909356018093F2
:101E900055018D818093570182E390E0A0E0B0E08E
:101EA0008093580190935901A0935A01B0935B011C
:101EB0008091580190915901A0915A01B0915B0114
:101EC00080935C0190935D01A0935E01B0935F01EC
:101ED00081E69EE090936101809360018D81809303
:101EE000620182E390E0A0E0B0E080936301909310
:101EF0006401A0936501B0936601809163019091A4
:101F00006401A0916501B09166018093670190938F
:101F10006801A0936901B0936A0183E79EE0909302
:101F20006C0180936B018D8180936D0182E390E061
:101F3000A0E0B0E080936E0190936F01A0937001D8
:101F4000B093710180916E0190916F01A091700129
:101F5000B09171018093720190937301A093740109
:101F6000B093750186E09DE09093770180937601B0
:101F70008D818093780182E390E0A0E0B0E08093CF
:101F8000790190937A01A0937B01B0937C018091B9
:101F9000790190917A01A0917B01B0917C018093AD
:101FA0007D0190937E01A0937F01B09380018BE02F
:101FB0009EE0909382018093810162E370E080E073
:101FC00090E00E94780B0E94A60B1A8219829BC097
:101FD00089819A81880F991F9E012F5F3F4F820F41
:101FE000931F0596FC0180819181FC01258136813A
:101FF0004781508589819A81880F991FBE016F5F43
:102000007F4F860F971F0596FC0180819181FC010F
:1020100081819281A381B481281739074A075B0720
:1020200009F045C089819A81880F991F9E012F5F11
:102030003F4F820F931F0596FC010081118189811A
:102040009A81880F991F9E012F5F3F4F820F931F28
:102050000596FC0180819181FC0121853285898171
:102060009A81880F991FAE014F5F5F4F840F951FB4
:102070000596FC0180819181FC018081082E000C75
:10208000990BF9010995F801808389819A81880F5C
:10209000991F9E012F5F3F4F820F931F0596FC01F2
:1020A00080819181FC0115821682178210868981B8
:1020B0009A81880F991F9E012F5F3F4F820F931FB8
:1020C0000596FC012081318189819A81880F991FB1
:1020D000AE014F5F5F4F840F951F0596FC01808115
:1020E0009181FC0185819681A781B085C296A11D51
:1020F000B11DF90185839683A783B08789819A8171
:1021000001969A83898329813A818B819C81281742
:10211000390708F45DCF0000809134018823E1F392
:102120001092340152CFEE0FFF1F0024001C0BBE93
:0C2130000790F691E02D0994F894FFCF81
:10213C000000000200000000A100000000000100EF
:10214C0000000201030125000103070F1F41014C90
:10215C0001570162016D0178018301070604020138
:04216C000300050067
:00000001FF
