:100000000C948B000C94AA000C94AA000C94AA00E7
:100010000C94AA000C94AA000C94AA000C94AA00B8
:100020000C94AA000C94AA000C94AA000C94AA00A8
:100030000C94AA000C94920C0C94AA000C94AA00A4
:100040000C94AA000C94AA000C94AA000C94AA0088
:100050000C94AA000C94AA000C94AA000C94AA0078
:100060000C94AA000C94AA000C94AA000C94AA0068
:100070000C94AA000C94AA000C94AA000C94AA0058
:100080000C94AA000C94AA000C94AA00F20042015D
:100090006201A601EA0122026602B602E2023E0302
:1000A0008E03DE032E047D04CC041B056A057C054B
:1000B000BF050206390658068F06BA06F106340750
:1000C0005F07A207CD07EC07230866089108BC0864
:1000D000E708120955098009C309EE09190A500AEF
:1000E0006F0A8E0AAD0AD80AF70A160B410B6C0B81
:1000F000970BED0D040EA60EB30EC00ED10E7F0EA3
:100100008E0E9C0E0D0FF10E0D0F0D0F0D0F0D0F1E
:10011000F60E0D0FFA0E11241FBECFEFD0E4DEBF96
:10012000CDBF11E0A0E0B1E0ECEBF3E200E00BBFEB
:1001300002C007900D92A633B107D9F721E0A6E3DC
:10014000B1E001C01D92A239B207E1F70E94FE0F93
:100150000C94DC110C940000CF93DF9300D01F921D
:10016000CDB7DEB789837B836A8389818A3031F496
:100170008A819B81BC018DE00E94AC0080EC90E004
:10018000FC018081882F90E080729927892BB1F340
:1001900086EC90E02981FC01208380E090E00F90C4
:1001A0000F900F90DF91CF910895CF93DF931F921F
:1001B000CDB7DEB789838981882F90E0092E000CA6
:1001C000AA0BBB0B40E050E022E330E0841B950B10
:1001D0002817390710F40C94C20B8A5B9F4FFC015F
:1001E0000C94D311809116019091170120912D014B
:1001F000422F50E021E030E002C0220F331F4A9529
:10020000E2F7622F20912E01422F50E021E030E0F2
:1002100002C0220F331F4A95E2F7622B20912F0173
:10022000422F50E021E030E002C0220F331F4A95F8
:10023000E2F7622B20913001422F50E021E030E0C4
:1002400002C0220F331F4A95E2F7622B2091310141
:10025000422F50E021E030E002C0220F331F4A95C8
:10026000E2F7622B20913201422F50E021E030E092
:1002700002C0220F331F4A95E2F7262BFC01208390
:100280000C94110C809116019091170120912E0170
:10029000422F50E021E030E002C0220F331F4A9588
:1002A000E2F7622F20912F01422F50E021E030E051
:1002B00002C0220F331F4A95E2F7262BFC01208350
:1002C0000C94110C809116019091170120912D0131
:1002D000422F50E021E030E002C0220F331F4A9548
:1002E000E2F7622F20912E01422F50E021E030E012
:1002F00002C0220F331F4A95E2F7622B2091300192
:10030000422F50E021E030E002C0220F331F4A9517
:10031000E2F7622B20913101422F50E021E030E0E2
:1003200002C0220F331F4A95E2F7622B209133015E
:10033000422F50E021E030E002C0220F331F4A95E7
:10034000E2F7262BFC0120830C94110C80911601FE
:100350009091170120912D01422F50E021E030E0D3
:1003600002C0220F331F4A95E2F7622F20912E011F
:10037000422F50E021E030E002C0220F331F4A95A7
:10038000E2F7622B20912F01422F50E021E030E074
:1003900002C0220F331F4A95E2F7622B20913001F1
:1003A000422F50E021E030E002C0220F331F4A9577
:1003B000E2F7622B20913301422F50E021E030E040
:1003C00002C0220F331F4A95E2F7262BFC0120833F
:1003D0000C94110C809116019091170120912E011F
:1003E000422F50E021E030E002C0220F331F4A9537
:1003F000E2F7622F20912F01422F50E021E030E000
:1004000002C0220F331F4A95E2F7622B209132017E
:10041000422F50E021E030E002C0220F331F4A9506
:10042000E2F7622B20913301422F50E021E030E0CF
:1004300002C0220F331F4A95E2F7262BFC012083CE
:100440000C94110C809116019091170120912D01AF
:10045000422F50E021E030E002C0220F331F4A95C6
:10046000E2F7622F20912F01422F50E021E030E08F
:1004700002C0220F331F4A95E2F7622B2091300110
:10048000422F50E021E030E002C0220F331F4A9596
:10049000E2F7622B20913201422F50E021E030E060
:1004A00002C0220F331F4A95E2F7622B20913301DD
:1004B000422F50E021E030E002C0220F331F4A9566
:1004C000E2F7262BFC0120830C94110C809116017D
:1004D0009091170120912D01422F50E021E030E052
:1004E00002C0220F331F4A95E2F7622F20912F019D
:1004F000422F50E021E030E002C0220F331F4A9526
:10050000E2F7622B20913001422F50E021E030E0F1
:1005100002C0220F331F4A95E2F7622B209131016E
:10052000422F50E021E030E002C0220F331F4A95F5
:10053000E2F7622B20913201422F50E021E030E0BF
:1005400002C0220F331F4A95E2F7622B209133013C
:10055000422F50E021E030E002C0220F331F4A95C5
:10056000E2F7262BFC0120830C94110C80911601DC
:100570009091170120912D01422F50E021E030E0B1
:1005800002C0220F331F4A95E2F7622F20912E01FD
:10059000422F50E021E030E002C0220F331F4A9585
:1005A000E2F7622B20912F01422F50E021E030E052
:1005B00002C0220F331F4A95E2F7262BFC0120834D
:1005C0000C94110C809116019091170120912D012E
:1005D000422F50E021E030E002C0220F331F4A9545
:1005E000E2F7622F20912E01422F50E021E030E00F
:1005F00002C0220F331F4A95E2F7622B20912F0190
:10060000422F50E021E030E002C0220F331F4A9514
:10061000E2F7622B20913001422F50E021E030E0E0
:1006200002C0220F331F4A95E2F7622B209131015D
:10063000422F50E021E030E002C0220F331F4A95E4
:10064000E2F7622B20913201422F50E021E030E0AE
:1006500002C0220F331F4A95E2F7622B209133012B
:10066000422F50E021E030E002C0220F331F4A95B4
:10067000E2F7262BFC0120830C94110C80911601CB
:100680009091170120912D01422F50E021E030E0A0
:1006900002C0220F331F4A95E2F7622F20912E01EC
:1006A000422F50E021E030E002C0220F331F4A9574
:1006B000E2F7622B20912F01422F50E021E030E041
:1006C00002C0220F331F4A95E2F7622B20913001BE
:1006D000422F50E021E030E002C0220F331F4A9544
:1006E000E2F7622B20913201422F50E021E030E00E
:1006F00002C0220F331F4A95E2F7622B209133018B
:10070000422F50E021E030E002C0220F331F4A9513
:10071000E2F7262BFC0120830C94110C809116012A
:100720009091170120912D01422F50E021E030E0FF
:1007300002C0220F331F4A95E2F7622F20912E014B
:10074000422F50E021E030E002C0220F331F4A95D3
:10075000E2F7622B20912F01422F50E021E030E0A0
:1007600002C0220F331F4A95E2F7622B209130011D
:10077000422F50E021E030E002C0220F331F4A95A3
:10078000E2F7622B20913201422F50E021E030E06D
:1007900002C0220F331F4A95E2F7622B20913301EA
:1007A000422F50E021E030E002C0220F331F4A9573
:1007B000E2F7262BFC0120830C94110C809116018A
:1007C0009091170120912D01422F50E021E030E05F
:1007D00002C0220F331F4A95E2F7622F20912E01AB
:1007E000422F50E021E030E002C0220F331F4A9533
:1007F000E2F7622B20912F01422F50E021E030E000
:1008000002C0220F331F4A95E2F7622B209130017C
:10081000422F50E021E030E002C0220F331F4A9502
:10082000E2F7622B20913201422F50E021E030E0CC
:1008300002C0220F331F4A95E2F7622B2091330149
:10084000422F50E021E030E002C0220F331F4A95D2
:10085000E2F7262BFC0120830C94110C80911601E9
:100860009091170120912D01422F50E021E030E0BE
:1008700002C0220F331F4A95E2F7622F20912E010A
:10088000422F50E021E030E002C0220F331F4A9592
:10089000E2F7622B20912F01422F50E021E030E05F
:1008A00002C0220F331F4A95E2F7622B20913001DC
:1008B000422F50E021E030E002C0220F331F4A9562
:1008C000E2F7622B20913201422F50E021E030E02C
:1008D00002C0220F331F4A95E2F7622B20913301A9
:1008E000422F50E021E030E002C0220F331F4A9532
:1008F000E2F7262BFC01208394C78091160190918A
:10090000170120912D01422F50E021E030E002C07C
:10091000220F331F4A95E2F7622F20912E01422FBA
:1009200050E021E030E002C0220F331F4A95E2F789
:10093000622B20912F01422F50E021E030E002C0D5
:10094000220F331F4A95E2F7622B20913001422F8C
:1009500050E021E030E002C0220F331F4A95E2F759
:10096000622B20913201422F50E021E030E002C0A2
:10097000220F331F4A95E2F7622B20913301422F59
:1009800050E021E030E002C0220F331F4A95E2F729
:10099000262BFC01208345C78091160190911701F9
:1009A00020912D01422F50E021E030E002C0220FC3
:1009B000331F4A95E2F7622F20912E01422F50E01B
:1009C00021E030E002C0220F331F4A95E2F7622B8C
:1009D00020912F01422F50E021E030E002C0220F91
:1009E000331F4A95E2F7622B20913001422F50E0ED
:1009F00021E030E002C0220F331F4A95E2F7622B5C
:100A000020913201422F50E021E030E002C0220F5D
:100A1000331F4A95E2F7622B20913301422F50E0B9
:100A200021E030E002C0220F331F4A95E2F7262B67
:100A3000FC012083F6C68091160190911701209148
:100A40002D01422F50E021E030E002C0220F331F81
:100A50004A95E2F7622F20912E01422F50E021E0CB
:100A600030E002C0220F331F4A95E2F7622B20913B
:100A70002F01422F50E021E030E002C0220F331F4F
:100A80004A95E2F7622B20913001422F50E021E09D
:100A900030E002C0220F331F4A95E2F7622B20910B
:100AA0003201422F50E021E030E002C0220F331F1C
:100AB0004A95E2F7622B20913301422F50E021E06A
:100AC00030E002C0220F331F4A95E2F7262BFC01CB
:100AD0002083A7C6809116019091170120913401BF
:100AE000422F50E021E030E002C0220F331F4A9530
:100AF000E2F7FC01208395C68091160190911701C1
:100B000020912D01422F50E021E030E002C0220F61
:100B1000331F4A95E2F7622F20912F01422F50E0B8
:100B200021E030E002C0220F331F4A95E2F7622B2A
:100B300020913001422F50E021E030E002C0220F2E
:100B4000331F4A95E2F7622B20913101422F50E08A
:100B500021E030E002C0220F331F4A95E2F7622BFA
:100B600020913201422F50E021E030E002C0220FFC
:100B7000331F4A95E2F7262BFC01208352C6809151
:100B800016019091170120912E01422F50E021E093
:100B900030E002C0220F331F4A95E2F7622F209106
:100BA0002F01422F50E021E030E002C0220F331F1E
:100BB0004A95E2F7622B20913101422F50E021E06B
:100BC00030E002C0220F331F4A95E2F7622B2091DA
:100BD0003201422F50E021E030E002C0220F331FEB
:100BE0004A95E2F7622B20913301422F50E021E039
:100BF00030E002C0220F331F4A95E2F7262BFC019A
:100C000020830FC6809116019091170120912F012A
:100C1000422F50E021E030E002C0220F331F4A95FE
:100C2000E2F7622F20913101422F50E021E030E0C5
:100C300002C0220F331F4A95E2F7622B2091320146
:100C4000422F50E021E030E002C0220F331F4A95CE
:100C5000E2F7622B20913301422F50E021E030E097
:100C600002C0220F331F4A95E2F7262BFC01208396
:100C7000D8C5809116019091170120913101422F22
:100C800050E021E030E002C0220F331F4A95E2F726
:100C9000622F20913201422F50E021E030E002C06B
:100CA000220F331F4A95E2F7262BFC012083B9C59A
:100CB000809116019091170120912E01422F50E052
:100CC00021E030E002C0220F331F4A95E2F7622F85
:100CD00020912F01422F50E021E030E002C0220F8E
:100CE000331F4A95E2F7622B20913001422F50E0EA
:100CF00021E030E002C0220F331F4A95E2F7622B59
:100D000020913101422F50E021E030E002C0220F5B
:100D1000331F4A95E2F7262BFC01208382C5809180
:100D200016019091170120913001422F50E021E0EF
:100D300030E002C0220F331F4A95E2F7622F209164
:100D40003101422F50E021E030E002C0220F331F7A
:100D50004A95E2F7622B20913201422F50E021E0C8
:100D600030E002C0220F331F4A95E2F7262BFC0128
:100D7000208357C5809116019091170120912D0174
:100D8000422F50E021E030E002C0220F331F4A958D
:100D9000E2F7622F20912F01422F50E021E030E056
:100DA00002C0220F331F4A95E2F7622B20913101D6
:100DB000422F50E021E030E002C0220F331F4A955D
:100DC000E2F7622B20913301422F50E021E030E026
:100DD00002C0220F331F4A95E2F7262BFC01208325
:100DE00020C5809116019091170120912D01422F6D
:100DF00050E021E030E002C0220F331F4A95E2F7B5
:100E0000622F20912E01422F50E021E030E002C0FD
:100E1000220F331F4A95E2F7622B20912F01422FB8
:100E200050E021E030E002C0220F331F4A95E2F784
:100E3000622B20913101422F50E021E030E002C0CE
:100E4000220F331F4A95E2F7622B20913201422F85
:100E500050E021E030E002C0220F331F4A95E2F754
:100E6000262BFC012083DDC480911601909117018F
:100E700020912F01422F50E021E030E002C0220FEC
:100E8000331F4A95E2F7622F20913101422F50E043
:100E900021E030E002C0220F331F4A95E2F7622BB7
:100EA00020913301422F50E021E030E002C0220FB8
:100EB000331F4A95E2F7262BFC012083B2C48091B0
:100EC00016019091170120912D01422F50E021E051
:100ED00030E002C0220F331F4A95E2F7622F2091C3
:100EE0002E01422F50E021E030E002C0220F331FDC
:100EF0004A95E2F7622B20913101422F50E021E028
:100F000030E002C0220F331F4A95E2F7622B209196
:100F10003201422F50E021E030E002C0220F331FA7
:100F20004A95E2F7622B20913301422F50E021E0F5
:100F300030E002C0220F331F4A95E2F7262BFC0156
:100F400020836FC4809116019091170120912D018B
:100F5000422F50E021E030E002C0220F331F4A95BB
:100F6000E2F7622F20913101422F50E021E030E082
:100F700002C0220F331F4A95E2F7622B2091320103
:100F8000422F50E021E030E002C0220F331F4A958B
:100F9000E2F7262BFC01208344C480911601909136
:100FA000170120913101422F50E021E030E002C0D2
:100FB000220F331F4A95E2F7622F20913301422F0F
:100FC00050E021E030E002C0220F331F4A95E2F7E3
:100FD000262BFC01208325C48091160190911701D6
:100FE00020913001422F50E021E030E002C0220F7A
:100FF000331F4A95E2F7622F20913101422F50E0D2
:1010000021E030E002C0220F331F4A95E2F7622B45
:1010100020913201422F50E021E030E002C0220F47
:10102000331F4A95E2F7622B20913301422F50E0A3
:1010300021E030E002C0220F331F4A95E2F7262B51
:10104000FC012083EEC3809116019091170120913D
:101050002E01422F50E021E030E002C0220F331F6A
:101060004A95E2F7622F20912F01422F50E021E0B4
:1010700030E002C0220F331F4A95E2F7622B209125
:101080003001422F50E021E030E002C0220F331F38
:101090004A95E2F7622B20913101422F50E021E086
:1010A00030E002C0220F331F4A95E2F7622B2091F5
:1010B0003201422F50E021E030E002C0220F331F06
:1010C0004A95E2F7262BFC012083ABC380911601E1
:1010D0009091170120912F01422F50E021E030E044
:1010E00002C0220F331F4A95E2F7622F2091300190
:1010F000422F50E021E030E002C0220F331F4A951A
:10110000E2F7622B20913101422F50E021E030E0E4
:1011100002C0220F331F4A95E2F7262BFC012083E1
:1011200080C3809116019091170120912E01422FCA
:1011300050E021E030E002C0220F331F4A95E2F771
:10114000622F20913001422F50E021E030E002C0B8
:10115000220F331F4A95E2F7622B20913201422F72
:1011600050E021E030E002C0220F331F4A95E2F741
:10117000262BFC01208355C3809116019091170105
:1011800020912E01422F50E021E030E002C0220FDA
:10119000331F4A95E2F7622F20913201422F50E02F
:1011A00021E030E002C0220F331F4A95E2F7622BA4
:1011B00020913301422F50E021E030E002C0220FA5
:1011C000331F4A95E2F7262BFC0120832AC3809126
:1011D00016019091170120912D01422F50E021E03E
:1011E00030E002C0220F331F4A95E2F7622F2091B0
:1011F0003001422F50E021E030E002C0220F331FC7
:101200004A95E2F7622B20913301422F50E021E012
:1012100030E002C0220F331F4A95E2F7262BFC0173
:101220002083FFC2809116019091170120912E0119
:10123000422F50E021E030E002C0220F331F4A95D8
:10124000E2F7622F20912F01422F50E021E030E0A1
:1012500002C0220F331F4A95E2F7622B2091300122
:10126000422F50E021E030E002C0220F331F4A95A8
:10127000E2F7622B20913201422F50E021E030E072
:1012800002C0220F331F4A95E2F7622B20913301EF
:10129000422F50E021E030E002C0220F331F4A9578
:1012A000E2F7262BFC012083BCC2809116019091AD
:1012B000170120912E01422F50E021E030E002C0C2
:1012C000220F331F4A95E2F7622F20913101422FFE
:1012D00050E021E030E002C0220F331F4A95E2F7D0
:1012E000622B20913301422F50E021E030E002C018
:1012F000220F331F4A95E2F7262BFC01208391C26F
:10130000809116019091170120912D01422F50E0FC
:1013100021E030E002C0220F331F4A95E2F7622F2E
:1013200020912E01422F50E021E030E002C0220F38
:10133000331F4A95E2F7622B20912F01422F50E094
:1013400021E030E002C0220F331F4A95E2F7622B02
:1013500020913101422F50E021E030E002C0220F05
:10136000331F4A95E2F7622B20913301422F50E060
:1013700021E030E002C0220F331F4A95E2F7262B0E
:10138000FC0120834EC2809116019091170120919B
:101390003101422F50E021E030E002C0220F331F24
:1013A0004A95E2F7622F20913201422F50E021E06E
:1013B00030E002C0220F331F4A95E2F7622B2091E2
:1013C0003301422F50E021E030E002C0220F331FF2
:1013D0004A95E2F7262BFC01208323C28091160157
:1013E0009091170120912E01422F50E021E030E032
:1013F00002C0220F331F4A95E2F7622F20912F017E
:10140000422F50E021E030E002C0220F331F4A9506
:10141000E2F7622B20913301422F50E021E030E0CF
:1014200002C0220F331F4A95E2F7262BFC012083CE
:10143000F8C1809116019091170120912E01422F41
:1014400050E021E030E002C0220F331F4A95E2F75E
:10145000622F20912F01422F50E021E030E002C0A6
:10146000220F331F4A95E2F7622B20913101422F60
:1014700050E021E030E002C0220F331F4A95E2F72E
:10148000622B20913201422F50E021E030E002C077
:10149000220F331F4A95E2F7262BFC012083C1C19E
:1014A000809116019091170120912E01422F50E05A
:1014B00021E030E002C0220F331F4A95E2F7622F8D
:1014C00020913201422F50E021E030E002C0220F93
:1014D000331F4A95E2F7262BFC012083A2C180919D
:1014E00016019091170120912F01422F50E021E029
:1014F00030E002C0220F331F4A95E2F7622F20919D
:101500003101422F50E021E030E002C0220F331FB2
:101510004A95E2F7262BFC01208383C180911601B6
:101520009091170120912D01422F50E021E030E0F1
:1015300002C0220F331F4A95E2F7622F209130013B
:10154000422F50E021E030E002C0220F331F4A95C5
:10155000E2F7262BFC01208364C180911601909153
:10156000170120912F01422F50E021E030E002C00E
:10157000220F331F4A95E2F7622F20913201422F4A
:1015800050E021E030E002C0220F331F4A95E2F71D
:10159000622B20913301422F50E021E030E002C065
:1015A000220F331F4A95E2F7262BFC01208339C115
:1015B000809116019091170120912F01422F50E048
:1015C00021E030E002C0220F331F4A95E2F7622F7C
:1015D00020913201422F50E021E030E002C0220F82
:1015E000331F4A95E2F7262BFC0120831AC1809114
:1015F00016019091170120912E01422F50E021E019
:1016000030E002C0220F331F4A95E2F7622F20918B
:101610003101422F50E021E030E002C0220F331FA1
:101620004A95E2F7262BFC012083FBC0809116012E
:101630009091170120912D01422F50E021E030E0E0
:1016400002C0220F331F4A95E2F7622F2091320128
:10165000422F50E021E030E002C0220F331F4A95B4
:10166000E2F7622B20913301422F50E021E030E07D
:1016700002C0220F331F4A95E2F7262BFC0120837C
:10168000D0C0809116019091170120913001422F16
:1016900050E021E030E002C0220F331F4A95E2F70C
:1016A000622F20913101422F50E021E030E002C052
:1016B000220F331F4A95E2F7622B20913301422F0C
:1016C00050E021E030E002C0220F331F4A95E2F7DC
:1016D000262BFC012083A5C0809116019091170153
:1016E00020912F01422F50E021E030E002C0220F74
:1016F000331F4A95E2F7622F20913001422F50E0CC
:1017000021E030E002C0220F331F4A95E2F7622B3E
:1017100020913301422F50E021E030E002C0220F3F
:10172000331F4A95E2F7262BFC0120837AC0809173
:1017300016019091170120912D01422F50E021E0D8
:1017400030E002C0220F331F4A95E2F7622F20914A
:101750002E01422F50E021E030E002C0220F331F63
:101760004A95E2F7622B20913301422F50E021E0AD
:1017700030E002C0220F331F4A95E2F7262BFC010E
:1017800020834FC0809116019091170120912D0167
:10179000422F50E021E030E002C0220F331F4A9573
:1017A000E2F7622F20912E01422F50E021E030E03D
:1017B00002C0220F331F4A95E2F7622B20912F01BE
:1017C000422F50E021E030E002C0220F331F4A9543
:1017D000E2F7622B20913001422F50E021E030E00F
:1017E00002C0220F331F4A95E2F7622B209131018C
:1017F000422F50E021E030E002C0220F331F4A9513
:10180000E2F7622B20913201422F50E021E030E0DC
:1018100002C0220F331F4A95E2F7262BFC012083DA
:10182000000000000F90DF91CF910895CF93DF93D8
:1018300000D000D0CDB7DEB769837A838B839C83D9
:1018400089819A81AB81BC8180930E0190930F01B5
:10185000A0931001B093110180910E0190910F019E
:10186000A0911001B091110180933701909338013C
:10187000A0933901B0933A0100000F900F900F90A0
:101880000F90DF91CF910895CF93DF93CDB7DEB75F
:1018900081E890E02BE0FC01208388E890E02DE7D0
:1018A00030E0FC01318320838FE690E022E0FC01F0
:1018B000208384E890E0FC011182108280910E0167
:1018C00090910F01A0911001B09111018093370107
:1018D00090933801A0933901B0933A018FE590E0DD
:1018E0002FE530E0F90120812068FC012083000011
:1018F000DF91CF910895CF93DF93CDB7DEB781E825
:1019000090E0FC0110820000DF91CF910895CF9309
:10191000DF93CDB7DEB781E0809336010000DF9121
:10192000CF9108951F920F9200905F000F921124A3
:1019300000905B000F922F933F934F935F936F93B1
:101940007F938F939F93AF93BF93EF93FF93CF9327
:10195000DF93CDB7DEB78091370190913801A09128
:101960003901B0913A010197A109B109809337017A
:1019700090933801A0933901B0933A0180913701D7
:1019800090913801A0913901B0913A01892B8A2BAD
:101990008B2B91F40E94870C80910E0190910F0186
:1019A000A0911001B09111018093370190933801FB
:1019B000A0933901B0933A010000DF91CF91FF91DC
:1019C000EF91BF91AF919F918F917F916F915F91B7
:1019D0004F913F912F910F9000925B000F900092DA
:1019E0005F000F901F901895CF93DF9300D0CDB775
:1019F000DEB79A83898389819A818130910559F074
:101A00008230910599F1892B09F053C081E090E073
:101A10009A83898352C080913C01882309F1809187
:101A200015018823E9F082E090E09A83898381E0C0
:101A300080933B011092410180911301843020F486
:101A400083E08093420111C080911301873020F41C
:101A500082E08093420109C081E08093420105C089
:101A600081E090E09A83898328C027C080913C015F
:101A70008823D1F082E090E09A838983909141019C
:101A8000809142019817C1F480913B01803121F48B
:101A900081E080933B0105C080913B01880F8093DA
:101AA0003B011092410108C081E090E09A83898354
:101AB00003C01A82198201C0000089819A810097AF
:101AC00081F0992384F0039774F4809141018F5F32
:101AD0008093410182E290E020913B01FC01208350
:101AE00003C0000001C0000089819A810F900F900F
:101AF000DF91CF910895CF93DF9300D01F92CDB7A0
:101B0000DEB79B838A8386E290E0FC01808180952A
:101B1000807489838A819B818130910551F0823064
:101B20009105F1F0892B49F581E090E09B838A8350
:101B300027C08981882329F481E090E09B838A83F0
:101B40001FC082E090E09B838A8380913C018823C0
:101B500021F481E080933C0113C010923C0110C03D
:101B60008981882329F481E090E09B838A8308C0DF
:101B700082E090E09B838A8303C01B821A8200006C
:101B800000008A819B810F900F900F90DF91CF9181
:101B90000895CF93DF9300D01F92CDB7DEB79B831C
:101BA0008A8386E290E0FC0180818095807A898337
:101BB0008A819B81092E000CAA0BBB0B40E050E0F0
:101BC00028E030E0841B950B2817390708F4F1C092
:101BD00087589F4FFC010C94D31181E090E09B83C8
:101BE0008A8382E08093120181E080931301109236
:101BF000150110923E0180911201982F80911301DE
:101C0000890F80931401D9C01092400180913C014A
:101C10008823C1F489818038A9F4909113018091BF
:101C20001401981778F482E090E09B838A83809176
:101C300013018F5F80931301809112018150809373
:101C400012015CC080913C018823B1F4898180320B
:101C500099F480911301823078F083E090E09B83C7
:101C60008A83809113018150809313018091120126
:101C70008F5F8093120142C080913C01882341F024
:101C800081E08093150184E090E09B838A8395C076
:101C900080911201282F880F330B80911301882F18
:101CA00090E0820F931F0A9744F081E080934001F7
:101CB00086E090E09B838A8380C080913E018823E8
:101CC00041F081E08093400187E090E09B838A832C
:101CD00074C08981803A29F488E090E09B838A83EC
:101CE0006CC081E090E09B838A8380911201982FE1
:101CF00080911301890F809314015FC05EC08981B8
:101D0000803A39F488E090E09B838A831092400106
:101D100054C086E090E09B838A834FC08981803ADB
:101D200039F488E090E09B838A831092400104C0DC
:101D300087E090E09B838A8389818823E9F581E0AD
:101D400090E09B838A831092400136C0898180385D
:101D500029F482E090E09B838A832FC081E090E0A9
:101D60009B838A832AC08981803229F483E090E0B2
:101D70009B838A8322C081E090E09B838A831DC07D
:101D800080913C01882341F485E090E09B838A8325
:101D900081E080933D0111C084E090E09B838A83C1
:101DA0000CC081E090E09B838A8381E080931301E3
:101DB00004C01B821A8201C000008A819B81092E07
:101DC000000CAA0BBB0B40E050E028E030E0841B85
:101DD000950B28173907F8F08E579F4FFC010C948C
:101DE000D311109215011092400118C081E0809328
:101DF000400114C01092400182E08093120181E002
:101E00008093130110923B0110923E0180911201C8
:101E10000E94D50003C0000001C000008A819B81A0
:101E20000F900F900F90DF91CF910895CF93DF9394
:101E300000D0CDB7DEB79A83898389819A818130BA
:101E4000910551F082309105A9F0892BD1F481E000
:101E500090E09A83898318C080913D01882329F4FA
:101E600081E090E09A8389830FC082E090E09A83BA
:101E700089830AC081E090E09A83898310923D01B2
:101E800003C01A821982000089819A81992344F142
:101E9000823091053CF1029709F022C080913B010C
:101EA000843031F480911301880F8093130102C0B4
:101EB0001092130180911201982F80911301890FC4
:101EC00081508093120180911201082E000C990B11
:101ED00001961816190644F081E080933E0105C072
:101EE000000003C0000001C0000089819A810F90AA
:101EF0000F90DF91CF910895CF93DF9300D0CDB7AE
:101F0000DEB79A83898389819A818130910549F06E
:101F100082309105A1F0892BB9F481E090E09A8399
:101F2000898380914001882329F481E090E09A839D
:101F300089830DC082E090E09A83898308C081E0A4
:101F400090E09A83898303C01A82198200008981F4
:101F50009A818130910531F08230910541F0892BD1
:101F600059F00BC0809112010E94D50006C085E295
:101F700090E0FC01108201C0000089819A810F90DD
:101F80000F90DF91CF910895CF93DF93CDB7DEB758
:101F90002A970FB6F894DEBF0FBECDBF9A87898708
:101FA00028E0E9E1F1E0CE010196DC0101900D921B
:101FB0002A95E1F788E290E020EEFC0120838091F1
:101FC0001301882F90E001979E012F5F3F4F820FF2
:101FD000931FFC018081809343018BE290E020916C
:101FE0004301FC01208380E090E02A960FB6F8942C
:101FF000DEBF0FBECDBFDF91CF9108950F931F932A
:10200000CF93DF93CDB7DEB761970FB6F894DEBFFD
:102010000FBECDBF81E290E02FE7FC01208382E27A
:1020200090E020E8FC01208384E290E02FEFFC01A7
:10203000208385E290E0FC01108287E290E02FE1AE
:10204000FC01208388E290E020EEFC0120838AE2FC
:1020500090E02FEFFC0120838BE290E0FC011082E6
:102060008CE0E1E2F1E0DE01169601900D928A9596
:10207000E1F786E090E09C838B838FEF8D838D81E9
:102080008093460182E390E0A0E0B0E080934701B6
:1020900090934801A0934901B0934A018091470170
:1020A00090914801A0914901B0914A0180934B0160
:1020B00090934C01A0934D01B0934E018BE79DE0AE
:1020C0009093500180934F018D81809351018BE457
:1020D00090E0A0E0B0E08093520190935301A09370
:1020E0005401B09355018091520190915301A091F8
:1020F0005401B09155018093560190935701A093DC
:102100005801B093590184EF9CE090935B01809358
:102110005A018D8180935C0186E990E0A0E0B0E0F7
:1021200080935D0190935E01A0935F01B093600185
:1021300080915D0190915E01A0915F01B09160017D
:102140008093610190936201A0936301B093640155
:102150008CE79FE090936601809365018D81809369
:10216000670182E390E0A0E0B0E080936801909383
:102170006901A0936A01B0936B018091680190910D
:102180006901A0916A01B0916B0180936C019093F9
:102190006D01A0936E01B0936F0184EC9FE090936A
:1021A0007101809370018D818093720188EC90E0C1
:1021B000A0E0B0E08093730190937401A093750147
:1021C000B09376018091730190917401A091750193
:1021D000B09176018093770190937801A093790173
:1021E000B0937A0189EC9DE090937C0180937B0110
:1021F0008D8180937D0182E390E0A0E0B0E0809348
:102200007E0190937F01A0938001B0938101809122
:102210007E0190917F01A0918001B0918101809316
:10222000820190938301A0938401B093850186E19C
:102230009FE0909387018093860169E170E080E0E0
:1022400090E00E94160C0E94440C1A8219829BC0D6
:1022500089819A81880F991F9E012F5F3F4F820FBE
:10226000931F0596FC0180819181FC0125813681B7
:102270004781508589819A81880F991FBE016F5FC0
:102280007F4F860F971F0596FC0180819181FC018D
:1022900081819281A381B481281739074A075B079E
:1022A00009F045C089819A81880F991F9E012F5F8F
:1022B0003F4F820F931F0596FC0100811181898198
:1022C0009A81880F991F9E012F5F3F4F820F931FA6
:1022D0000596FC0180819181FC01218532858981EF
:1022E0009A81880F991FAE014F5F5F4F840F951F32
:1022F0000596FC0180819181FC018081082E000CF3
:10230000990BF9010995F801808389819A81880FD9
:10231000991F9E012F5F3F4F820F931F0596FC016F
:1023200080819181FC011582168217821086898135
:102330009A81880F991F9E012F5F3F4F820F931F35
:102340000596FC012081318189819A81880F991F2E
:10235000AE014F5F5F4F840F951F0596FC01808192
:102360009181FC0185819681A781B0854996A11D47
:10237000B11DF90185839683A783B08789819A81EE
:1023800001969A83898329813A818B819C812817C0
:10239000390708F45DCF0000809136018823E1F30E
:1023A0001092360152CFEE0FFF1F0024001C0BBE0F
:0C23B0000790F691E02D0994F894FFCFFF
:1023BC000000000200000000AC0000000000010062
:1023CC0000000201030125008080C0E0F0F8FCFE53
:1023DC00FF460151015C01670172017D0107060492
:0623EC00020103000500E0
:00000001FF
